{
  "contractName": "Memes",
  "abi": [
    {
      "anonymous": false,
      "inputs": [
        {
          "indexed": false,
          "internalType": "string",
          "name": "name",
          "type": "string"
        },
        {
          "indexed": false,
          "internalType": "string",
          "name": "token",
          "type": "string"
        }
      ],
      "name": "ProfileCreate",
      "type": "event"
    },
    {
      "anonymous": false,
      "inputs": [
        {
          "indexed": false,
          "internalType": "string",
          "name": "name",
          "type": "string"
        }
      ],
      "name": "nameUpdate",
      "type": "event"
    },
    {
      "anonymous": false,
      "inputs": [
        {
          "indexed": false,
          "internalType": "string",
          "name": "url",
          "type": "string"
        }
      ],
      "name": "profilePicture",
      "type": "event"
    },
    {
      "inputs": [
        {
          "internalType": "string",
          "name": "_token",
          "type": "string"
        },
        {
          "internalType": "string",
          "name": "_name",
          "type": "string"
        }
      ],
      "name": "createProfile",
      "outputs": [],
      "stateMutability": "nonpayable",
      "type": "function"
    },
    {
      "inputs": [],
      "name": "getAuth",
      "outputs": [
        {
          "components": [
            {
              "internalType": "uint256",
              "name": "count",
              "type": "uint256"
            },
            {
              "internalType": "string",
              "name": "name",
              "type": "string"
            },
            {
              "internalType": "string",
              "name": "picture",
              "type": "string"
            },
            {
              "internalType": "string",
              "name": "token",
              "type": "string"
            }
          ],
          "internalType": "struct Profile.Person",
          "name": "",
          "type": "tuple"
        }
      ],
      "stateMutability": "view",
      "type": "function",
      "constant": true
    },
    {
      "inputs": [],
      "name": "personCount",
      "outputs": [
        {
          "internalType": "uint32",
          "name": "",
          "type": "uint32"
        }
      ],
      "stateMutability": "view",
      "type": "function",
      "constant": true
    },
    {
      "inputs": [
        {
          "internalType": "address",
          "name": "",
          "type": "address"
        }
      ],
      "name": "persons",
      "outputs": [
        {
          "internalType": "uint256",
          "name": "count",
          "type": "uint256"
        },
        {
          "internalType": "string",
          "name": "name",
          "type": "string"
        },
        {
          "internalType": "string",
          "name": "picture",
          "type": "string"
        },
        {
          "internalType": "string",
          "name": "token",
          "type": "string"
        }
      ],
      "stateMutability": "view",
      "type": "function",
      "constant": true
    },
    {
      "inputs": [
        {
          "internalType": "string",
          "name": "_name",
          "type": "string"
        }
      ],
      "name": "updateName",
      "outputs": [],
      "stateMutability": "nonpayable",
      "type": "function"
    },
    {
      "inputs": [
        {
          "internalType": "string",
          "name": "hashUrl",
          "type": "string"
        }
      ],
      "name": "updatePicture",
      "outputs": [],
      "stateMutability": "nonpayable",
      "type": "function"
    },
    {
      "inputs": [
        {
          "internalType": "string",
          "name": "_hashUrl",
          "type": "string"
        },
        {
          "internalType": "string",
          "name": "_desc",
          "type": "string"
        }
      ],
      "name": "createMeme",
      "outputs": [],
      "stateMutability": "nonpayable",
      "type": "function"
    },
    {
      "inputs": [
        {
          "internalType": "uint256",
          "name": "_id",
          "type": "uint256"
        }
      ],
      "name": "addLike",
      "outputs": [],
      "stateMutability": "nonpayable",
      "type": "function"
    },
    {
      "inputs": [
        {
          "internalType": "string",
          "name": "_comment",
          "type": "string"
        },
        {
          "internalType": "uint256",
          "name": "_id",
          "type": "uint256"
        }
      ],
      "name": "addCommment",
      "outputs": [],
      "stateMutability": "nonpayable",
      "type": "function"
    }
  ],
  "bytecode": "0x608060405260008060006101000a81548163ffffffff021916908363ffffffff1602179055506000600255600060035534801561003b57600080fd5b506114338061004b6000396000f3fe608060405234801561001057600080fd5b50600436106100935760003560e01c806384da92a71161006657806384da92a71461010c5780638ada2cf6146101285780638b46d54f1461015b578063ba1feb8a14610177578063e3ec39c91461019357610093565b806306a992981461009857806308571011146100b4578063378a35cd146100d257806378495bf8146100ee575b600080fd5b6100b260048036038101906100ad9190610d02565b6101af565b005b6100bc61028d565b6040516100c99190610e5d565b60405180910390f35b6100ec60048036038101906100e79190610eab565b610522565b005b6100f6610560565b6040516101039190610ef7565b60405180910390f35b61012660048036038101906101219190610d02565b610574565b005b610142600480360381019061013d9190610f70565b610652565b6040516101529493929190610ff6565b60405180910390f35b61017560048036038101906101709190611050565b61081a565b005b610191600480360381019061018c91906110ac565b6108f4565b005b6101ad60048036038101906101a891906110ac565b610a27565b005b60008151116101f3576040517f08c379a00000000000000000000000000000000000000000000000000000000081526004016101ea90611170565b60405180910390fd5b6000600160003373ffffffffffffffffffffffffffffffffffffffff1673ffffffffffffffffffffffffffffffffffffffff16815260200190815260200160002090508181600201908051906020019061024e929190610add565b507fafbb1bb2daed62d7f16b641aff88c9d2f614634342f8c701d713b2cdfea82e17816002016040516102819190611286565b60405180910390a15050565b610295610b63565b6000600160003373ffffffffffffffffffffffffffffffffffffffff1673ffffffffffffffffffffffffffffffffffffffff168152602001908152602001600020905060008160010180546102e9906111bf565b9050116102f557600080fd5b6000816003018054610306906111bf565b90501161031257600080fd5b600160003373ffffffffffffffffffffffffffffffffffffffff1673ffffffffffffffffffffffffffffffffffffffff16815260200190815260200160002060405180608001604052908160008201548152602001600182018054610376906111bf565b80601f01602080910402602001604051908101604052809291908181526020018280546103a2906111bf565b80156103ef5780601f106103c4576101008083540402835291602001916103ef565b820191906000526020600020905b8154815290600101906020018083116103d257829003601f168201915b50505050508152602001600282018054610408906111bf565b80601f0160208091040260200160405190810160405280929190818152602001828054610434906111bf565b80156104815780601f1061045657610100808354040283529160200191610481565b820191906000526020600020905b81548152906001019060200180831161046457829003601f168201915b5050505050815260200160038201805461049a906111bf565b80601f01602080910402602001604051908101604052809291908181526020018280546104c6906111bf565b80156105135780601f106104e857610100808354040283529160200191610513565b820191906000526020600020905b8154815290600101906020018083116104f657829003601f168201915b50505050508152505091505090565b60006004600083815260200190815260200160002090506002600081548092919061054c906112d7565b919050555060025481600301819055505050565b60008054906101000a900463ffffffff1681565b60008151116105b8576040517f08c379a00000000000000000000000000000000000000000000000000000000081526004016105af9061136c565b60405180910390fd5b6000600160003373ffffffffffffffffffffffffffffffffffffffff1673ffffffffffffffffffffffffffffffffffffffff168152602001908152602001600020905081816001019080519060200190610613929190610add565b507fb63543ddfed42bc1b7a50630c7abf2809dfe7873e4bfda1b9bf8d7b8b7097272816001016040516106469190611286565b60405180910390a15050565b600160205280600052604060002060009150905080600001549080600101805461067b906111bf565b80601f01602080910402602001604051908101604052809291908181526020018280546106a7906111bf565b80156106f45780601f106106c9576101008083540402835291602001916106f4565b820191906000526020600020905b8154815290600101906020018083116106d757829003601f168201915b505050505090806002018054610709906111bf565b80601f0160208091040260200160405190810160405280929190818152602001828054610735906111bf565b80156107825780601f1061075757610100808354040283529160200191610782565b820191906000526020600020905b81548152906001019060200180831161076557829003601f168201915b505050505090806003018054610797906111bf565b80601f01602080910402602001604051908101604052809291908181526020018280546107c3906111bf565b80156108105780601f106107e557610100808354040283529160200191610810565b820191906000526020600020905b8154815290600101906020018083116107f357829003601f168201915b5050505050905084565b60006004600083815260200190815260200160002090508060040160405180604001604052808581526020013373ffffffffffffffffffffffffffffffffffffffff16815250908060018154018082558091505060019003906000526020600020906002020160009091909190915060008201518160000190805190602001906108a5929190610add565b5060208201518160010160006101000a81548173ffffffffffffffffffffffffffffffffffffffff021916908373ffffffffffffffffffffffffffffffffffffffff1602179055505050505050565b600082511161090257600080fd5b600081511161091057600080fd5b6000600160003373ffffffffffffffffffffffffffffffffffffffff1673ffffffffffffffffffffffffffffffffffffffff168152602001908152602001600020905060016000808282829054906101000a900463ffffffff16610974919061138c565b92506101000a81548163ffffffff021916908363ffffffff16021790555060008054906101000a900463ffffffff1663ffffffff168160000181905550818160010190805190602001906109c9929190610add565b50828160030190805190602001906109e2929190610add565b507ff1fb5ec2eb6b7db61c0f2a2595aaf8b4b020ae67bf0df8b22117338bfa94ec3b8160010182600301604051610a1a9291906113c6565b60405180910390a1505050565b60006004600060035481526020019081526020016000209050338160000160006101000a81548173ffffffffffffffffffffffffffffffffffffffff021916908373ffffffffffffffffffffffffffffffffffffffff16021790555082816001019080519060200190610a9b929190610add565b5081816002019080519060200190610ab4929190610add565b50600254816003018190555060036000815480929190610ad3906112d7565b9190505550505050565b828054610ae9906111bf565b90600052602060002090601f016020900481019282610b0b5760008555610b52565b82601f10610b2457805160ff1916838001178555610b52565b82800160010185558215610b52579182015b82811115610b51578251825591602001919060010190610b36565b5b509050610b5f9190610b8b565b5090565b6040518060800160405280600081526020016060815260200160608152602001606081525090565b5b80821115610ba4576000816000905550600101610b8c565b5090565b6000604051905090565b600080fd5b600080fd5b600080fd5b600080fd5b6000601f19601f8301169050919050565b7f4e487b7100000000000000000000000000000000000000000000000000000000600052604160045260246000fd5b610c0f82610bc6565b810181811067ffffffffffffffff82111715610c2e57610c2d610bd7565b5b80604052505050565b6000610c41610ba8565b9050610c4d8282610c06565b919050565b600067ffffffffffffffff821115610c6d57610c6c610bd7565b5b610c7682610bc6565b9050602081019050919050565b82818337600083830152505050565b6000610ca5610ca084610c52565b610c37565b905082815260208101848484011115610cc157610cc0610bc1565b5b610ccc848285610c83565b509392505050565b600082601f830112610ce957610ce8610bbc565b5b8135610cf9848260208601610c92565b91505092915050565b600060208284031215610d1857610d17610bb2565b5b600082013567ffffffffffffffff811115610d3657610d35610bb7565b5b610d4284828501610cd4565b91505092915050565b6000819050919050565b610d5e81610d4b565b82525050565b600081519050919050565b600082825260208201905092915050565b60005b83811015610d9e578082015181840152602081019050610d83565b83811115610dad576000848401525b50505050565b6000610dbe82610d64565b610dc88185610d6f565b9350610dd8818560208601610d80565b610de181610bc6565b840191505092915050565b6000608083016000830151610e046000860182610d55565b5060208301518482036020860152610e1c8282610db3565b91505060408301518482036040860152610e368282610db3565b91505060608301518482036060860152610e508282610db3565b9150508091505092915050565b60006020820190508181036000830152610e778184610dec565b905092915050565b610e8881610d4b565b8114610e9357600080fd5b50565b600081359050610ea581610e7f565b92915050565b600060208284031215610ec157610ec0610bb2565b5b6000610ecf84828501610e96565b91505092915050565b600063ffffffff82169050919050565b610ef181610ed8565b82525050565b6000602082019050610f0c6000830184610ee8565b92915050565b600073ffffffffffffffffffffffffffffffffffffffff82169050919050565b6000610f3d82610f12565b9050919050565b610f4d81610f32565b8114610f5857600080fd5b50565b600081359050610f6a81610f44565b92915050565b600060208284031215610f8657610f85610bb2565b5b6000610f9484828501610f5b565b91505092915050565b610fa681610d4b565b82525050565b600082825260208201905092915050565b6000610fc882610d64565b610fd28185610fac565b9350610fe2818560208601610d80565b610feb81610bc6565b840191505092915050565b600060808201905061100b6000830187610f9d565b818103602083015261101d8186610fbd565b905081810360408301526110318185610fbd565b905081810360608301526110458184610fbd565b905095945050505050565b6000806040838503121561106757611066610bb2565b5b600083013567ffffffffffffffff81111561108557611084610bb7565b5b61109185828601610cd4565b92505060206110a285828601610e96565b9150509250929050565b600080604083850312156110c3576110c2610bb2565b5b600083013567ffffffffffffffff8111156110e1576110e0610bb7565b5b6110ed85828601610cd4565b925050602083013567ffffffffffffffff81111561110e5761110d610bb7565b5b61111a85828601610cd4565b9150509250929050565b7f696e76616c69642055726c000000000000000000000000000000000000000000600082015250565b600061115a600b83610fac565b915061116582611124565b602082019050919050565b600060208201905081810360008301526111898161114d565b9050919050565b7f4e487b7100000000000000000000000000000000000000000000000000000000600052602260045260246000fd5b600060028204905060018216806111d757607f821691505b602082108114156111eb576111ea611190565b5b50919050565b60008190508160005260206000209050919050565b60008154611213816111bf565b61121d8186610fac565b94506001821660008114611238576001811461124a5761127d565b60ff198316865260208601935061127d565b611253856111f1565b60005b8381101561127557815481890152600182019150602081019050611256565b808801955050505b50505092915050565b600060208201905081810360008301526112a08184611206565b905092915050565b7f4e487b7100000000000000000000000000000000000000000000000000000000600052601160045260246000fd5b60006112e282610d4b565b91507fffffffffffffffffffffffffffffffffffffffffffffffffffffffffffffffff821415611315576113146112a8565b5b600182019050919050565b7f696e76616c6964206e616d650000000000000000000000000000000000000000600082015250565b6000611356600c83610fac565b915061136182611320565b602082019050919050565b6000602082019050818103600083015261138581611349565b9050919050565b600061139782610ed8565b91506113a283610ed8565b92508263ffffffff038211156113bb576113ba6112a8565b5b828201905092915050565b600060408201905081810360008301526113e08185611206565b905081810360208301526113f48184611206565b9050939250505056fea26469706673582212208d5370bca0394799d450e57f7555e3bfa91722b0ae2fadadd9d81357df67a39964736f6c634300080a0033",
  "immutableReferences": {},
  "source": "// SPDX-License-Identifier: MIT\n\npragma solidity ^0.8.0;\nimport \"./Profile.sol\";\n\ncontract Memes is Profile {\n    uint256 likeCount = 0;\n    uint256 id = 0;\n    mapping(uint256 => MemePost) memes;\n\n    struct Comment {\n        string commentDes;\n        address commentor;\n    }\n    struct MemePost {\n        address owner;\n        string hashUrl;\n        string desc;\n        uint256 likes;\n        Comment[] comments;\n    }\n\n    function createMeme(string memory _hashUrl, string memory _desc) public {\n        MemePost storage meme = memes[id];\n\n        meme.owner = msg.sender;\n        meme.hashUrl = _hashUrl;\n        meme.desc = _desc;\n        meme.likes = likeCount;\n\n        id++;\n    }\n\n    function addLike(uint256 _id) public {\n        MemePost storage meme = memes[_id];\n        likeCount++;\n        meme.likes = likeCount;\n    }\n\n    function addCommment(string memory _comment, uint256 _id) public {\n        MemePost storage meme = memes[_id];\n\n        meme.comments.push(\n            Comment({commentDes: _comment, commentor: msg.sender})\n        );\n    }\n}\n",
  "sourcePath": "/mnt/home2/blockchain/decentralized-memebook/src/contracts/Memes.sol",
  "compiler": {
    "name": "solc",
    "version": "0.8.10+commit.fc410830.Emscripten.clang"
  },
  "schemaVersion": "3.4.3",
  "updatedAt": "2021-12-16T05:04:30.637Z",
  "networkType": "ethereum",
  "devdoc": {
    "kind": "dev",
    "methods": {},
    "version": 1
  },
  "userdoc": {
    "kind": "user",
    "methods": {},
    "version": 1
  }
}