{
  "contractName": "Memes",
  "abi": [
    {
      "anonymous": false,
      "inputs": [
        {
          "indexed": false,
          "internalType": "string",
          "name": "name",
          "type": "string"
        },
        {
          "indexed": false,
          "internalType": "string",
          "name": "token",
          "type": "string"
        }
      ],
      "name": "ProfileCreate",
      "type": "event"
    },
    {
      "inputs": [
        {
          "internalType": "string",
          "name": "_token",
          "type": "string"
        },
        {
          "internalType": "string",
          "name": "name",
          "type": "string"
        }
      ],
      "name": "createProfile",
      "outputs": [],
      "stateMutability": "nonpayable",
      "type": "function"
    },
    {
      "inputs": [],
      "name": "getAuth",
      "outputs": [
        {
          "components": [
            {
              "internalType": "uint256",
              "name": "count",
              "type": "uint256"
            },
            {
              "internalType": "string",
              "name": "name",
              "type": "string"
            },
            {
              "internalType": "string",
              "name": "picture",
              "type": "string"
            },
            {
              "internalType": "string",
              "name": "token",
              "type": "string"
            }
          ],
          "internalType": "struct Profile.Person",
          "name": "",
          "type": "tuple"
        }
      ],
      "stateMutability": "view",
      "type": "function",
      "constant": true
    },
    {
      "inputs": [
        {
          "internalType": "address",
          "name": "",
          "type": "address"
        }
      ],
      "name": "persons",
      "outputs": [
        {
          "internalType": "uint256",
          "name": "count",
          "type": "uint256"
        },
        {
          "internalType": "string",
          "name": "name",
          "type": "string"
        },
        {
          "internalType": "string",
          "name": "picture",
          "type": "string"
        },
        {
          "internalType": "string",
          "name": "token",
          "type": "string"
        }
      ],
      "stateMutability": "view",
      "type": "function",
      "constant": true
    },
    {
      "inputs": [
        {
          "internalType": "string",
          "name": "name",
          "type": "string"
        }
      ],
      "name": "updateName",
      "outputs": [],
      "stateMutability": "nonpayable",
      "type": "function"
    },
    {
      "inputs": [
        {
          "internalType": "string",
          "name": "hashUrl",
          "type": "string"
        }
      ],
      "name": "updatePicture",
      "outputs": [],
      "stateMutability": "nonpayable",
      "type": "function"
    },
    {
      "inputs": [
        {
          "internalType": "string",
          "name": "_hashUrl",
          "type": "string"
        },
        {
          "internalType": "string",
          "name": "_desc",
          "type": "string"
        }
      ],
      "name": "createMeme",
      "outputs": [],
      "stateMutability": "nonpayable",
      "type": "function"
    },
    {
      "inputs": [
        {
          "internalType": "uint256",
          "name": "_id",
          "type": "uint256"
        }
      ],
      "name": "addLike",
      "outputs": [],
      "stateMutability": "nonpayable",
      "type": "function"
    },
    {
      "inputs": [
        {
          "internalType": "string",
          "name": "_comment",
          "type": "string"
        },
        {
          "internalType": "uint256",
          "name": "_id",
          "type": "uint256"
        }
      ],
      "name": "addCommment",
      "outputs": [],
      "stateMutability": "nonpayable",
      "type": "function"
    }
  ],
  "bytecode": "0x608060405260008060006101000a81548163ffffffff021916908363ffffffff1602179055506000600255600060035534801561003b57600080fd5b5061111e8061004b6000396000f3fe608060405234801561001057600080fd5b50600436106100885760003560e01c80638ada2cf61161005b5780638ada2cf6146100ff5780638b46d54f14610132578063ba1feb8a1461014e578063e3ec39c91461016a57610088565b806306a992981461008d57806308571011146100a9578063378a35cd146100c757806384da92a7146100e3575b600080fd5b6100a760048036038101906100a29190610b1e565b610186565b005b6100b16101e6565b6040516100be9190610c79565b60405180910390f35b6100e160048036038101906100dc9190610cc7565b6103fd565b005b6100fd60048036038101906100f89190610b1e565b61043b565b005b61011960048036038101906101149190610d52565b61049b565b6040516101299493929190610dd8565b60405180910390f35b61014c60048036038101906101479190610e32565b610663565b005b61016860048036038101906101639190610e8e565b61073d565b005b610184600480360381019061017f9190610e8e565b610843565b005b6000600160003373ffffffffffffffffffffffffffffffffffffffff1673ffffffffffffffffffffffffffffffffffffffff1681526020019081526020016000209050818160020190805190602001906101e19291906108f9565b505050565b6101ee61097f565b600160003373ffffffffffffffffffffffffffffffffffffffff1673ffffffffffffffffffffffffffffffffffffffff1681526020019081526020016000206040518060800160405290816000820154815260200160018201805461025290610f35565b80601f016020809104026020016040519081016040528092919081815260200182805461027e90610f35565b80156102cb5780601f106102a0576101008083540402835291602001916102cb565b820191906000526020600020905b8154815290600101906020018083116102ae57829003601f168201915b505050505081526020016002820180546102e490610f35565b80601f016020809104026020016040519081016040528092919081815260200182805461031090610f35565b801561035d5780601f106103325761010080835404028352916020019161035d565b820191906000526020600020905b81548152906001019060200180831161034057829003601f168201915b5050505050815260200160038201805461037690610f35565b80601f01602080910402602001604051908101604052809291908181526020018280546103a290610f35565b80156103ef5780601f106103c4576101008083540402835291602001916103ef565b820191906000526020600020905b8154815290600101906020018083116103d257829003601f168201915b505050505081525050905090565b60006004600083815260200190815260200160002090506002600081548092919061042790610f96565b919050555060025481600301819055505050565b6000600160003373ffffffffffffffffffffffffffffffffffffffff1673ffffffffffffffffffffffffffffffffffffffff1681526020019081526020016000209050818160010190805190602001906104969291906108f9565b505050565b60016020528060005260406000206000915090508060000154908060010180546104c490610f35565b80601f01602080910402602001604051908101604052809291908181526020018280546104f090610f35565b801561053d5780601f106105125761010080835404028352916020019161053d565b820191906000526020600020905b81548152906001019060200180831161052057829003601f168201915b50505050509080600201805461055290610f35565b80601f016020809104026020016040519081016040528092919081815260200182805461057e90610f35565b80156105cb5780601f106105a0576101008083540402835291602001916105cb565b820191906000526020600020905b8154815290600101906020018083116105ae57829003601f168201915b5050505050908060030180546105e090610f35565b80601f016020809104026020016040519081016040528092919081815260200182805461060c90610f35565b80156106595780601f1061062e57610100808354040283529160200191610659565b820191906000526020600020905b81548152906001019060200180831161063c57829003601f168201915b5050505050905084565b60006004600083815260200190815260200160002090508060040160405180604001604052808581526020013373ffffffffffffffffffffffffffffffffffffffff16815250908060018154018082558091505060019003906000526020600020906002020160009091909190915060008201518160000190805190602001906106ee9291906108f9565b5060208201518160010160006101000a81548173ffffffffffffffffffffffffffffffffffffffff021916908373ffffffffffffffffffffffffffffffffffffffff1602179055505050505050565b6000600160003373ffffffffffffffffffffffffffffffffffffffff1673ffffffffffffffffffffffffffffffffffffffff168152602001908152602001600020905060008081819054906101000a900463ffffffff16809291906107a190610fef565b91906101000a81548163ffffffff021916908363ffffffff16021790555063ffffffff168160000181905550818160010190805190602001906107e59291906108f9565b50828160030190805190602001906107fe9291906108f9565b507ff1fb5ec2eb6b7db61c0f2a2595aaf8b4b020ae67bf0df8b22117338bfa94ec3b81600101826003016040516108369291906110b1565b60405180910390a1505050565b60006004600060035481526020019081526020016000209050338160000160006101000a81548173ffffffffffffffffffffffffffffffffffffffff021916908373ffffffffffffffffffffffffffffffffffffffff160217905550828160010190805190602001906108b79291906108f9565b50818160020190805190602001906108d09291906108f9565b506002548160030181905550600360008154809291906108ef90610f96565b9190505550505050565b82805461090590610f35565b90600052602060002090601f016020900481019282610927576000855561096e565b82601f1061094057805160ff191683800117855561096e565b8280016001018555821561096e579182015b8281111561096d578251825591602001919060010190610952565b5b50905061097b91906109a7565b5090565b6040518060800160405280600081526020016060815260200160608152602001606081525090565b5b808211156109c05760008160009055506001016109a8565b5090565b6000604051905090565b600080fd5b600080fd5b600080fd5b600080fd5b6000601f19601f8301169050919050565b7f4e487b7100000000000000000000000000000000000000000000000000000000600052604160045260246000fd5b610a2b826109e2565b810181811067ffffffffffffffff82111715610a4a57610a496109f3565b5b80604052505050565b6000610a5d6109c4565b9050610a698282610a22565b919050565b600067ffffffffffffffff821115610a8957610a886109f3565b5b610a92826109e2565b9050602081019050919050565b82818337600083830152505050565b6000610ac1610abc84610a6e565b610a53565b905082815260208101848484011115610add57610adc6109dd565b5b610ae8848285610a9f565b509392505050565b600082601f830112610b0557610b046109d8565b5b8135610b15848260208601610aae565b91505092915050565b600060208284031215610b3457610b336109ce565b5b600082013567ffffffffffffffff811115610b5257610b516109d3565b5b610b5e84828501610af0565b91505092915050565b6000819050919050565b610b7a81610b67565b82525050565b600081519050919050565b600082825260208201905092915050565b60005b83811015610bba578082015181840152602081019050610b9f565b83811115610bc9576000848401525b50505050565b6000610bda82610b80565b610be48185610b8b565b9350610bf4818560208601610b9c565b610bfd816109e2565b840191505092915050565b6000608083016000830151610c206000860182610b71565b5060208301518482036020860152610c388282610bcf565b91505060408301518482036040860152610c528282610bcf565b91505060608301518482036060860152610c6c8282610bcf565b9150508091505092915050565b60006020820190508181036000830152610c938184610c08565b905092915050565b610ca481610b67565b8114610caf57600080fd5b50565b600081359050610cc181610c9b565b92915050565b600060208284031215610cdd57610cdc6109ce565b5b6000610ceb84828501610cb2565b91505092915050565b600073ffffffffffffffffffffffffffffffffffffffff82169050919050565b6000610d1f82610cf4565b9050919050565b610d2f81610d14565b8114610d3a57600080fd5b50565b600081359050610d4c81610d26565b92915050565b600060208284031215610d6857610d676109ce565b5b6000610d7684828501610d3d565b91505092915050565b610d8881610b67565b82525050565b600082825260208201905092915050565b6000610daa82610b80565b610db48185610d8e565b9350610dc4818560208601610b9c565b610dcd816109e2565b840191505092915050565b6000608082019050610ded6000830187610d7f565b8181036020830152610dff8186610d9f565b90508181036040830152610e138185610d9f565b90508181036060830152610e278184610d9f565b905095945050505050565b60008060408385031215610e4957610e486109ce565b5b600083013567ffffffffffffffff811115610e6757610e666109d3565b5b610e7385828601610af0565b9250506020610e8485828601610cb2565b9150509250929050565b60008060408385031215610ea557610ea46109ce565b5b600083013567ffffffffffffffff811115610ec357610ec26109d3565b5b610ecf85828601610af0565b925050602083013567ffffffffffffffff811115610ef057610eef6109d3565b5b610efc85828601610af0565b9150509250929050565b7f4e487b7100000000000000000000000000000000000000000000000000000000600052602260045260246000fd5b60006002820490506001821680610f4d57607f821691505b60208210811415610f6157610f60610f06565b5b50919050565b7f4e487b7100000000000000000000000000000000000000000000000000000000600052601160045260246000fd5b6000610fa182610b67565b91507fffffffffffffffffffffffffffffffffffffffffffffffffffffffffffffffff821415610fd457610fd3610f67565b5b600182019050919050565b600063ffffffff82169050919050565b6000610ffa82610fdf565b915063ffffffff82141561101157611010610f67565b5b600182019050919050565b60008190508160005260206000209050919050565b6000815461103e81610f35565b6110488186610d8e565b945060018216600081146110635760018114611075576110a8565b60ff19831686526020860193506110a8565b61107e8561101c565b60005b838110156110a057815481890152600182019150602081019050611081565b808801955050505b50505092915050565b600060408201905081810360008301526110cb8185611031565b905081810360208301526110df8184611031565b9050939250505056fea264697066735822122038f04af781c3e018f569ee50e160859bcfc7454178429c5f49c5e159acb78a2564736f6c634300080a0033",
  "immutableReferences": {},
  "source": "// SPDX-License-Identifier: MIT\n\npragma solidity ^0.8.0;\nimport \"./Profile.sol\";\n\ncontract Memes is Profile {\n    uint256 likeCount = 0;\n    uint256 id = 0;\n    mapping(uint256 => MemePost) memes;\n\n    struct Comment {\n        string commentDes;\n        address commentor;\n    }\n    struct MemePost {\n        address owner;\n        string hashUrl;\n        string desc;\n        uint256 likes;\n        Comment[] comments;\n    }\n\n    function createMeme(string memory _hashUrl, string memory _desc) public {\n        MemePost storage meme = memes[id];\n\n        meme.owner = msg.sender;\n        meme.hashUrl = _hashUrl;\n        meme.desc = _desc;\n        meme.likes = likeCount;\n\n        id++;\n    }\n\n    function addLike(uint256 _id) public {\n        MemePost storage meme = memes[_id];\n        likeCount++;\n        meme.likes = likeCount;\n    }\n\n    function addCommment(string memory _comment, uint256 _id) public {\n        MemePost storage meme = memes[_id];\n\n        meme.comments.push(\n            Comment({commentDes: _comment, commentor: msg.sender})\n        );\n    }\n}\n",
  "sourcePath": "/mnt/home2/blockchain/decentralized-memebook/src/contracts/Memes.sol",
  "compiler": {
    "name": "solc",
    "version": "0.8.10+commit.fc410830.Emscripten.clang"
  },
  "schemaVersion": "3.4.3",
  "updatedAt": "2021-12-15T13:14:06.170Z",
  "networkType": "ethereum",
  "devdoc": {
    "kind": "dev",
    "methods": {},
    "version": 1
  },
  "userdoc": {
    "kind": "user",
    "methods": {},
    "version": 1
  }
}