{
  "contractName": "Memes",
  "abi": [
    {
      "anonymous": false,
      "inputs": [
        {
          "indexed": false,
          "internalType": "string",
          "name": "name",
          "type": "string"
        },
        {
          "indexed": false,
          "internalType": "string",
          "name": "token",
          "type": "string"
        }
      ],
      "name": "ProfileCreate",
      "type": "event"
    },
    {
      "anonymous": false,
      "inputs": [
        {
          "indexed": false,
          "internalType": "string",
          "name": "name",
          "type": "string"
        }
      ],
      "name": "nameUpdate",
      "type": "event"
    },
    {
      "anonymous": false,
      "inputs": [
        {
          "indexed": false,
          "internalType": "string",
          "name": "url",
          "type": "string"
        }
      ],
      "name": "profilePicture",
      "type": "event"
    },
    {
      "inputs": [
        {
          "internalType": "string",
          "name": "_token",
          "type": "string"
        },
        {
          "internalType": "string",
          "name": "_name",
          "type": "string"
        }
      ],
      "name": "createProfile",
      "outputs": [],
      "stateMutability": "nonpayable",
      "type": "function"
    },
    {
      "inputs": [],
      "name": "getAuth",
      "outputs": [
        {
          "internalType": "string",
          "name": "",
          "type": "string"
        },
        {
          "internalType": "string",
          "name": "",
          "type": "string"
        }
      ],
      "stateMutability": "view",
      "type": "function",
      "constant": true
    },
    {
      "inputs": [
        {
          "internalType": "uint256",
          "name": "",
          "type": "uint256"
        }
      ],
      "name": "memes",
      "outputs": [
        {
          "internalType": "string",
          "name": "name",
          "type": "string"
        },
        {
          "internalType": "string",
          "name": "hashUrl",
          "type": "string"
        },
        {
          "internalType": "string",
          "name": "desc",
          "type": "string"
        },
        {
          "internalType": "uint256",
          "name": "likes",
          "type": "uint256"
        }
      ],
      "stateMutability": "view",
      "type": "function",
      "constant": true
    },
    {
      "inputs": [],
      "name": "personCount",
      "outputs": [
        {
          "internalType": "uint32",
          "name": "",
          "type": "uint32"
        }
      ],
      "stateMutability": "view",
      "type": "function",
      "constant": true
    },
    {
      "inputs": [
        {
          "internalType": "address",
          "name": "",
          "type": "address"
        }
      ],
      "name": "persons",
      "outputs": [
        {
          "internalType": "uint256",
          "name": "count",
          "type": "uint256"
        },
        {
          "internalType": "string",
          "name": "name",
          "type": "string"
        },
        {
          "internalType": "string",
          "name": "picture",
          "type": "string"
        },
        {
          "internalType": "string",
          "name": "token",
          "type": "string"
        }
      ],
      "stateMutability": "view",
      "type": "function",
      "constant": true
    },
    {
      "inputs": [
        {
          "internalType": "string",
          "name": "_name",
          "type": "string"
        }
      ],
      "name": "updateName",
      "outputs": [],
      "stateMutability": "nonpayable",
      "type": "function"
    },
    {
      "inputs": [
        {
          "internalType": "string",
          "name": "hashUrl",
          "type": "string"
        }
      ],
      "name": "updatePicture",
      "outputs": [],
      "stateMutability": "nonpayable",
      "type": "function"
    },
    {
      "inputs": [
        {
          "internalType": "string",
          "name": "_hashUrl",
          "type": "string"
        },
        {
          "internalType": "string",
          "name": "_desc",
          "type": "string"
        }
      ],
      "name": "createMeme",
      "outputs": [],
      "stateMutability": "nonpayable",
      "type": "function"
    },
    {
      "inputs": [
        {
          "internalType": "uint256",
          "name": "_id",
          "type": "uint256"
        }
      ],
      "name": "addLike",
      "outputs": [],
      "stateMutability": "nonpayable",
      "type": "function"
    },
    {
      "inputs": [
        {
          "internalType": "string",
          "name": "_comment",
          "type": "string"
        },
        {
          "internalType": "uint256",
          "name": "_id",
          "type": "uint256"
        }
      ],
      "name": "addCommment",
      "outputs": [],
      "stateMutability": "nonpayable",
      "type": "function"
    }
  ],
  "bytecode": "0x608060405260008060006101000a81548163ffffffff021916908363ffffffff1602179055506000600255600060035534801561003b57600080fd5b506117928061004b6000396000f3fe608060405234801561001057600080fd5b506004361061009e5760003560e01c806384da92a71161006657806384da92a71461014b5780638ada2cf6146101675780638b46d54f1461019a578063ba1feb8a146101b6578063e3ec39c9146101d25761009e565b806306a99298146100a357806308571011146100bf578063378a35cd146100de578063388f6064146100fa57806378495bf81461012d575b600080fd5b6100bd60048036038101906100b89190611050565b6101ee565b005b6100c76102cc565b6040516100d5929190611121565b60405180910390f35b6100f860048036038101906100f3919061118e565b61043b565b005b610114600480360381019061010f919061118e565b61050c565b60405161012494939291906111ca565b60405180910390f35b6101356106d4565b6040516101429190611243565b60405180910390f35b61016560048036038101906101609190611050565b6106e8565b005b610181600480360381019061017c91906112bc565b6107c6565b60405161019194939291906112e9565b60405180910390f35b6101b460048036038101906101af9190611343565b61098e565b005b6101d060048036038101906101cb919061139f565b610b53565b005b6101ec60048036038101906101e7919061139f565b610c86565b005b6000815111610232576040517f08c379a000000000000000000000000000000000000000000000000000000000815260040161022990611463565b60405180910390fd5b6000600160003373ffffffffffffffffffffffffffffffffffffffff1673ffffffffffffffffffffffffffffffffffffffff16815260200190815260200160002090508181600201908051906020019061028d929190610dc6565b507fafbb1bb2daed62d7f16b641aff88c9d2f614634342f8c701d713b2cdfea82e17816002016040516102c09190611579565b60405180910390a15050565b6060806000600160003373ffffffffffffffffffffffffffffffffffffffff1673ffffffffffffffffffffffffffffffffffffffff16815260200190815260200160002090508060010181600301818054610326906114b2565b80601f0160208091040260200160405190810160405280929190818152602001828054610352906114b2565b801561039f5780601f106103745761010080835404028352916020019161039f565b820191906000526020600020905b81548152906001019060200180831161038257829003601f168201915b505050505091508080546103b2906114b2565b80601f01602080910402602001604051908101604052809291908181526020018280546103de906114b2565b801561042b5780601f106104005761010080835404028352916020019161042b565b820191906000526020600020905b81548152906001019060200180831161040e57829003601f168201915b5050505050905092509250509091565b6104436102cc565b6005600060066000849190509080519060200190610462929190610dc6565b5083919050908051906020019061047a929190610dc6565b50505060006006805461048c906114b2565b9050116104ce576040517f08c379a00000000000000000000000000000000000000000000000000000000081526004016104c5906115e7565b60405180910390fd5b6000600460008381526020019081526020016000209050600260008154809291906104f890611636565b919050555060025481600301819055505050565b600460205280600052604060002060009150905080600001805461052f906114b2565b80601f016020809104026020016040519081016040528092919081815260200182805461055b906114b2565b80156105a85780601f1061057d576101008083540402835291602001916105a8565b820191906000526020600020905b81548152906001019060200180831161058b57829003601f168201915b5050505050908060010180546105bd906114b2565b80601f01602080910402602001604051908101604052809291908181526020018280546105e9906114b2565b80156106365780601f1061060b57610100808354040283529160200191610636565b820191906000526020600020905b81548152906001019060200180831161061957829003601f168201915b50505050509080600201805461064b906114b2565b80601f0160208091040260200160405190810160405280929190818152602001828054610677906114b2565b80156106c45780601f10610699576101008083540402835291602001916106c4565b820191906000526020600020905b8154815290600101906020018083116106a757829003601f168201915b5050505050908060030154905084565b60008054906101000a900463ffffffff1681565b600081511161072c576040517f08c379a0000000000000000000000000000000000000000000000000000000008152600401610723906116cb565b60405180910390fd5b6000600160003373ffffffffffffffffffffffffffffffffffffffff1673ffffffffffffffffffffffffffffffffffffffff168152602001908152602001600020905081816001019080519060200190610787929190610dc6565b507fb63543ddfed42bc1b7a50630c7abf2809dfe7873e4bfda1b9bf8d7b8b7097272816001016040516107ba9190611579565b60405180910390a15050565b60016020528060005260406000206000915090508060000154908060010180546107ef906114b2565b80601f016020809104026020016040519081016040528092919081815260200182805461081b906114b2565b80156108685780601f1061083d57610100808354040283529160200191610868565b820191906000526020600020905b81548152906001019060200180831161084b57829003601f168201915b50505050509080600201805461087d906114b2565b80601f01602080910402602001604051908101604052809291908181526020018280546108a9906114b2565b80156108f65780601f106108cb576101008083540402835291602001916108f6565b820191906000526020600020905b8154815290600101906020018083116108d957829003601f168201915b50505050509080600301805461090b906114b2565b80601f0160208091040260200160405190810160405280929190818152602001828054610937906114b2565b80156109845780601f1061095957610100808354040283529160200191610984565b820191906000526020600020905b81548152906001019060200180831161096757829003601f168201915b5050505050905084565b6109966102cc565b60056000600660008491905090805190602001906109b5929190610dc6565b508391905090805190602001906109cd929190610dc6565b5050506000600680546109df906114b2565b905011610a21576040517f08c379a0000000000000000000000000000000000000000000000000000000008152600401610a18906115e7565b60405180910390fd5b6000825111610a2f57600080fd5b600060046000838152602001908152602001600020905080600401604051806040016040528085815260200160058054610a68906114b2565b80601f0160208091040260200160405190810160405280929190818152602001828054610a94906114b2565b8015610ae15780601f10610ab657610100808354040283529160200191610ae1565b820191906000526020600020905b815481529060010190602001808311610ac457829003601f168201915b505050505081525090806001815401808255809150506001900390600052602060002090600202016000909190919091506000820151816000019080519060200190610b2e929190610dc6565b506020820151816001019080519060200190610b4b929190610dc6565b505050505050565b6000825111610b6157600080fd5b6000815111610b6f57600080fd5b6000600160003373ffffffffffffffffffffffffffffffffffffffff1673ffffffffffffffffffffffffffffffffffffffff168152602001908152602001600020905060016000808282829054906101000a900463ffffffff16610bd391906116eb565b92506101000a81548163ffffffff021916908363ffffffff16021790555060008054906101000a900463ffffffff1663ffffffff16816000018190555081816001019080519060200190610c28929190610dc6565b5082816003019080519060200190610c41929190610dc6565b507ff1fb5ec2eb6b7db61c0f2a2595aaf8b4b020ae67bf0df8b22117338bfa94ec3b8160010182600301604051610c79929190611725565b60405180910390a1505050565b610c8e6102cc565b6005600060066000849190509080519060200190610cad929190610dc6565b50839190509080519060200190610cc5929190610dc6565b505050600060068054610cd7906114b2565b905011610d19576040517f08c379a0000000000000000000000000000000000000000000000000000000008152600401610d10906115e7565b60405180910390fd5b6000825111610d2757600080fd5b6000815111610d3557600080fd5b60006004600060035481526020019081526020016000209050600581600001908054610d60906114b2565b610d6b929190610e4c565b5082816001019080519060200190610d84929190610dc6565b5081816002019080519060200190610d9d929190610dc6565b50600254816003018190555060036000815480929190610dbc90611636565b9190505550505050565b828054610dd2906114b2565b90600052602060002090601f016020900481019282610df45760008555610e3b565b82601f10610e0d57805160ff1916838001178555610e3b565b82800160010185558215610e3b579182015b82811115610e3a578251825591602001919060010190610e1f565b5b509050610e489190610ed9565b5090565b828054610e58906114b2565b90600052602060002090601f016020900481019282610e7a5760008555610ec8565b82601f10610e8b5780548555610ec8565b82800160010185558215610ec857600052602060002091601f016020900482015b82811115610ec7578254825591600101919060010190610eac565b5b509050610ed59190610ed9565b5090565b5b80821115610ef2576000816000905550600101610eda565b5090565b6000604051905090565b600080fd5b600080fd5b600080fd5b600080fd5b6000601f19601f8301169050919050565b7f4e487b7100000000000000000000000000000000000000000000000000000000600052604160045260246000fd5b610f5d82610f14565b810181811067ffffffffffffffff82111715610f7c57610f7b610f25565b5b80604052505050565b6000610f8f610ef6565b9050610f9b8282610f54565b919050565b600067ffffffffffffffff821115610fbb57610fba610f25565b5b610fc482610f14565b9050602081019050919050565b82818337600083830152505050565b6000610ff3610fee84610fa0565b610f85565b90508281526020810184848401111561100f5761100e610f0f565b5b61101a848285610fd1565b509392505050565b600082601f83011261103757611036610f0a565b5b8135611047848260208601610fe0565b91505092915050565b60006020828403121561106657611065610f00565b5b600082013567ffffffffffffffff81111561108457611083610f05565b5b61109084828501611022565b91505092915050565b600081519050919050565b600082825260208201905092915050565b60005b838110156110d35780820151818401526020810190506110b8565b838111156110e2576000848401525b50505050565b60006110f382611099565b6110fd81856110a4565b935061110d8185602086016110b5565b61111681610f14565b840191505092915050565b6000604082019050818103600083015261113b81856110e8565b9050818103602083015261114f81846110e8565b90509392505050565b6000819050919050565b61116b81611158565b811461117657600080fd5b50565b60008135905061118881611162565b92915050565b6000602082840312156111a4576111a3610f00565b5b60006111b284828501611179565b91505092915050565b6111c481611158565b82525050565b600060808201905081810360008301526111e481876110e8565b905081810360208301526111f881866110e8565b9050818103604083015261120c81856110e8565b905061121b60608301846111bb565b95945050505050565b600063ffffffff82169050919050565b61123d81611224565b82525050565b60006020820190506112586000830184611234565b92915050565b600073ffffffffffffffffffffffffffffffffffffffff82169050919050565b60006112898261125e565b9050919050565b6112998161127e565b81146112a457600080fd5b50565b6000813590506112b681611290565b92915050565b6000602082840312156112d2576112d1610f00565b5b60006112e0848285016112a7565b91505092915050565b60006080820190506112fe60008301876111bb565b818103602083015261131081866110e8565b9050818103604083015261132481856110e8565b9050818103606083015261133881846110e8565b905095945050505050565b6000806040838503121561135a57611359610f00565b5b600083013567ffffffffffffffff81111561137857611377610f05565b5b61138485828601611022565b925050602061139585828601611179565b9150509250929050565b600080604083850312156113b6576113b5610f00565b5b600083013567ffffffffffffffff8111156113d4576113d3610f05565b5b6113e085828601611022565b925050602083013567ffffffffffffffff81111561140157611400610f05565b5b61140d85828601611022565b9150509250929050565b7f696e76616c69642055726c000000000000000000000000000000000000000000600082015250565b600061144d600b836110a4565b915061145882611417565b602082019050919050565b6000602082019050818103600083015261147c81611440565b9050919050565b7f4e487b7100000000000000000000000000000000000000000000000000000000600052602260045260246000fd5b600060028204905060018216806114ca57607f821691505b602082108114156114de576114dd611483565b5b50919050565b60008190508160005260206000209050919050565b60008154611506816114b2565b61151081866110a4565b9450600182166000811461152b576001811461153d57611570565b60ff1983168652602086019350611570565b611546856114e4565b60005b8381101561156857815481890152600182019150602081019050611549565b808801955050505b50505092915050565b6000602082019050818103600083015261159381846114f9565b905092915050565b7f596f7520617265206e6f74207265676973746572000000000000000000000000600082015250565b60006115d16014836110a4565b91506115dc8261159b565b602082019050919050565b60006020820190508181036000830152611600816115c4565b9050919050565b7f4e487b7100000000000000000000000000000000000000000000000000000000600052601160045260246000fd5b600061164182611158565b91507fffffffffffffffffffffffffffffffffffffffffffffffffffffffffffffffff82141561167457611673611607565b5b600182019050919050565b7f696e76616c6964206e616d650000000000000000000000000000000000000000600082015250565b60006116b5600c836110a4565b91506116c08261167f565b602082019050919050565b600060208201905081810360008301526116e4816116a8565b9050919050565b60006116f682611224565b915061170183611224565b92508263ffffffff0382111561171a57611719611607565b5b828201905092915050565b6000604082019050818103600083015261173f81856114f9565b9050818103602083015261175381846114f9565b9050939250505056fea26469706673582212204523f881237aac631c5d90ce3e14d152500cf7629451995aa56adfe733a3ec8264736f6c634300080a0033",
  "immutableReferences": {},
  "source": "// SPDX-License-Identifier: MIT\n\npragma solidity ^0.8.0;\nimport \"./Profile.sol\";\n\ncontract Memes is Profile {\n    uint256 likeCount = 0;\n    uint256 id = 0;\n    mapping(uint256 => MemePost) public memes;\n\n    struct Comment {\n        string commentDes;\n        string commentor;\n    }\n    struct MemePost {\n        string name;\n        string hashUrl;\n        string desc;\n        uint256 likes;\n        Comment[] comments;\n    }\n    string name;\n    string token;\n\n    function createMeme(string memory _hashUrl, string memory _desc) public {\n        (name, token) = getAuth();\n        require(bytes(token).length > 0, \"You are not register\");\n        require(bytes(_hashUrl).length > 0);\n        require(bytes(_desc).length > 0);\n\n        MemePost storage meme = memes[id];\n\n        meme.name = name;\n        meme.hashUrl = _hashUrl;\n        meme.desc = _desc;\n        meme.likes = likeCount;\n\n        id++;\n    }\n\n    function addLike(uint256 _id) public {\n        (name, token) = getAuth();\n        require(bytes(token).length > 0, \"You are not register\");\n\n        MemePost storage meme = memes[_id];\n        likeCount++;\n        meme.likes = likeCount;\n    }\n\n    function addCommment(string memory _comment, uint256 _id) public {\n        (name, token) = getAuth();\n        require(bytes(token).length > 0, \"You are not register\");\n        require(bytes(_comment).length > 0);\n\n        MemePost storage meme = memes[_id];\n\n        meme.comments.push(Comment({commentDes: _comment, commentor: name}));\n    }\n}\n",
  "sourcePath": "/mnt/home2/blockchain/decentralized-memebook/src/contracts/Memes.sol",
  "compiler": {
    "name": "solc",
    "version": "0.8.10+commit.fc410830.Emscripten.clang"
  },
  "schemaVersion": "3.4.3",
  "updatedAt": "2021-12-19T15:15:09.192Z",
  "networkType": "ethereum",
  "devdoc": {
    "kind": "dev",
    "methods": {},
    "version": 1
  },
  "userdoc": {
    "kind": "user",
    "methods": {},
    "version": 1
  }
}