{
  "contractName": "Memes",
  "abi": [
    {
      "inputs": [
        {
          "internalType": "string",
          "name": "_hashUrl",
          "type": "string"
        },
        {
          "internalType": "string",
          "name": "_desc",
          "type": "string"
        }
      ],
      "name": "createMeme",
      "outputs": [],
      "stateMutability": "nonpayable",
      "type": "function"
    },
    {
      "inputs": [
        {
          "internalType": "uint256",
          "name": "_id",
          "type": "uint256"
        }
      ],
      "name": "addLike",
      "outputs": [],
      "stateMutability": "nonpayable",
      "type": "function"
    },
    {
      "inputs": [
        {
          "internalType": "string",
          "name": "_comment",
          "type": "string"
        },
        {
          "internalType": "uint256",
          "name": "_id",
          "type": "uint256"
        }
      ],
      "name": "addCommment",
      "outputs": [],
      "stateMutability": "nonpayable",
      "type": "function"
    }
  ],
  "bytecode": "0x608060405260008055600060015534801561001957600080fd5b506106aa806100296000396000f3fe608060405234801561001057600080fd5b50600436106100415760003560e01c8063378a35cd146100465780638b46d54f14610062578063e3ec39c91461007e575b600080fd5b610060600480360381019061005b9190610354565b61009a565b005b61007c600480360381019061007791906104c7565b6100d7565b005b61009860048036038101906100939190610523565b6101b1565b005b60006002600083815260200190815260200160002090506000808154809291906100c3906105ca565b919050555060005481600301819055505050565b60006002600083815260200190815260200160002090508060040160405180604001604052808581526020013373ffffffffffffffffffffffffffffffffffffffff1681525090806001815401808255809150506001900390600052602060002090600202016000909190919091506000820151816000019080519060200190610162929190610267565b5060208201518160010160006101000a81548173ffffffffffffffffffffffffffffffffffffffff021916908373ffffffffffffffffffffffffffffffffffffffff1602179055505050505050565b60006002600060015481526020019081526020016000209050338160000160006101000a81548173ffffffffffffffffffffffffffffffffffffffff021916908373ffffffffffffffffffffffffffffffffffffffff16021790555082816001019080519060200190610225929190610267565b508181600201908051906020019061023e929190610267565b5060005481600301819055506001600081548092919061025d906105ca565b9190505550505050565b82805461027390610642565b90600052602060002090601f01602090048101928261029557600085556102dc565b82601f106102ae57805160ff19168380011785556102dc565b828001600101855582156102dc579182015b828111156102db5782518255916020019190600101906102c0565b5b5090506102e991906102ed565b5090565b5b808211156103065760008160009055506001016102ee565b5090565b6000604051905090565b600080fd5b600080fd5b6000819050919050565b6103318161031e565b811461033c57600080fd5b50565b60008135905061034e81610328565b92915050565b60006020828403121561036a57610369610314565b5b60006103788482850161033f565b91505092915050565b600080fd5b600080fd5b6000601f19601f8301169050919050565b7f4e487b7100000000000000000000000000000000000000000000000000000000600052604160045260246000fd5b6103d48261038b565b810181811067ffffffffffffffff821117156103f3576103f261039c565b5b80604052505050565b600061040661030a565b905061041282826103cb565b919050565b600067ffffffffffffffff8211156104325761043161039c565b5b61043b8261038b565b9050602081019050919050565b82818337600083830152505050565b600061046a61046584610417565b6103fc565b90508281526020810184848401111561048657610485610386565b5b610491848285610448565b509392505050565b600082601f8301126104ae576104ad610381565b5b81356104be848260208601610457565b91505092915050565b600080604083850312156104de576104dd610314565b5b600083013567ffffffffffffffff8111156104fc576104fb610319565b5b61050885828601610499565b92505060206105198582860161033f565b9150509250929050565b6000806040838503121561053a57610539610314565b5b600083013567ffffffffffffffff81111561055857610557610319565b5b61056485828601610499565b925050602083013567ffffffffffffffff81111561058557610584610319565b5b61059185828601610499565b9150509250929050565b7f4e487b7100000000000000000000000000000000000000000000000000000000600052601160045260246000fd5b60006105d58261031e565b91507fffffffffffffffffffffffffffffffffffffffffffffffffffffffffffffffff8214156106085761060761059b565b5b600182019050919050565b7f4e487b7100000000000000000000000000000000000000000000000000000000600052602260045260246000fd5b6000600282049050600182168061065a57607f821691505b6020821081141561066e5761066d610613565b5b5091905056fea26469706673582212205a69471f3ac38239eaae3df97e529ed1f8fa9692fb4ce5d448046b2a0fb6c0b464736f6c634300080a0033",
  "immutableReferences": {},
  "source": "// SPDX-License-Identifier: MIT\n\npragma solidity ^0.8.0;\n\ncontract Memes {\n    uint256 likeCount = 0;\n    uint256 id = 0;\n    mapping(uint256 => MemePost) memes;\n\n    struct Comment {\n        string commentDes;\n        address commentor;\n    }\n    struct MemePost {\n        address owner;\n        string hashUrl;\n        string desc;\n        uint256 likes;\n        Comment[] comments;\n    }\n\n    function createMeme(string memory _hashUrl, string memory _desc) public {\n        MemePost storage meme = memes[id];\n\n        meme.owner = msg.sender;\n        meme.hashUrl = _hashUrl;\n        meme.desc = _desc;\n        meme.likes = likeCount;\n\n        id++;\n    }\n\n    function addLike(uint256 _id) public {\n        MemePost storage meme = memes[_id];\n        likeCount++;\n        meme.likes = likeCount;\n    }\n\n    function addCommment(string memory _comment, uint256 _id) public {\n        MemePost storage meme = memes[_id];\n\n        meme.comments.push(\n            Comment({commentDes: _comment, commentor: msg.sender})\n        );\n    }\n}\n",
  "sourcePath": "/mnt/home2/blockchain/decentralized-memebook/src/contracts/Memes.sol",
  "compiler": {
    "name": "solc",
    "version": "0.8.10+commit.fc410830.Emscripten.clang"
  },
  "schemaVersion": "3.4.3",
  "updatedAt": "2021-12-12T11:24:04.211Z",
  "devdoc": {
    "kind": "dev",
    "methods": {},
    "version": 1
  },
  "userdoc": {
    "kind": "user",
    "methods": {},
    "version": 1
  }
}