{
  "contractName": "Profile",
  "abi": [
    {
      "inputs": [
        {
          "internalType": "address",
          "name": "",
          "type": "address"
        }
      ],
      "name": "persons",
      "outputs": [
        {
          "internalType": "string",
          "name": "name",
          "type": "string"
        },
        {
          "internalType": "string",
          "name": "picture",
          "type": "string"
        }
      ],
      "stateMutability": "view",
      "type": "function"
    },
    {
      "inputs": [
        {
          "internalType": "string",
          "name": "hashUrl",
          "type": "string"
        },
        {
          "internalType": "string",
          "name": "name",
          "type": "string"
        }
      ],
      "name": "createProfile",
      "outputs": [],
      "stateMutability": "nonpayable",
      "type": "function"
    }
  ],
  "bytecode": "0x60806040526000805534801561001457600080fd5b5061068c806100246000396000f3fe608060405234801561001057600080fd5b50600436106100365760003560e01c80638ada2cf61461003b578063ba1feb8a1461006c575b600080fd5b6100556004803603810190610050919061034b565b610088565b604051610063929190610411565b60405180910390f35b6100866004803603810190610081919061057d565b6101bc565b005b60016020528060005260406000206000915090508060000180546100ab90610624565b80601f01602080910402602001604051908101604052809291908181526020018280546100d790610624565b80156101245780601f106100f957610100808354040283529160200191610124565b820191906000526020600020905b81548152906001019060200180831161010757829003601f168201915b50505050509080600101805461013990610624565b80601f016020809104026020016040519081016040528092919081815260200182805461016590610624565b80156101b25780601f10610187576101008083540402835291602001916101b2565b820191906000526020600020905b81548152906001019060200180831161019557829003601f168201915b5050505050905082565b6000600160003373ffffffffffffffffffffffffffffffffffffffff1673ffffffffffffffffffffffffffffffffffffffff168152602001908152602001600020905081816000019080519060200190610217929190610236565b5082816001019080519060200190610230929190610236565b50505050565b82805461024290610624565b90600052602060002090601f01602090048101928261026457600085556102ab565b82601f1061027d57805160ff19168380011785556102ab565b828001600101855582156102ab579182015b828111156102aa57825182559160200191906001019061028f565b5b5090506102b891906102bc565b5090565b5b808211156102d55760008160009055506001016102bd565b5090565b6000604051905090565b600080fd5b600080fd5b600073ffffffffffffffffffffffffffffffffffffffff82169050919050565b6000610318826102ed565b9050919050565b6103288161030d565b811461033357600080fd5b50565b6000813590506103458161031f565b92915050565b600060208284031215610361576103606102e3565b5b600061036f84828501610336565b91505092915050565b600081519050919050565b600082825260208201905092915050565b60005b838110156103b2578082015181840152602081019050610397565b838111156103c1576000848401525b50505050565b6000601f19601f8301169050919050565b60006103e382610378565b6103ed8185610383565b93506103fd818560208601610394565b610406816103c7565b840191505092915050565b6000604082019050818103600083015261042b81856103d8565b9050818103602083015261043f81846103d8565b90509392505050565b600080fd5b600080fd5b7f4e487b7100000000000000000000000000000000000000000000000000000000600052604160045260246000fd5b61048a826103c7565b810181811067ffffffffffffffff821117156104a9576104a8610452565b5b80604052505050565b60006104bc6102d9565b90506104c88282610481565b919050565b600067ffffffffffffffff8211156104e8576104e7610452565b5b6104f1826103c7565b9050602081019050919050565b82818337600083830152505050565b600061052061051b846104cd565b6104b2565b90508281526020810184848401111561053c5761053b61044d565b5b6105478482856104fe565b509392505050565b600082601f83011261056457610563610448565b5b813561057484826020860161050d565b91505092915050565b60008060408385031215610594576105936102e3565b5b600083013567ffffffffffffffff8111156105b2576105b16102e8565b5b6105be8582860161054f565b925050602083013567ffffffffffffffff8111156105df576105de6102e8565b5b6105eb8582860161054f565b9150509250929050565b7f4e487b7100000000000000000000000000000000000000000000000000000000600052602260045260246000fd5b6000600282049050600182168061063c57607f821691505b602082108114156106505761064f6105f5565b5b5091905056fea2646970667358221220f8dde32ce06a38aaa1d818cb3d29c912db537e7b35a8aef295f4e9102b02941764736f6c634300080a0033",
  "immutableReferences": {},
  "source": "// SPDX-License-Identifier: MIT\n\npragma solidity ^0.8.0;\n\ncontract Profile {\n    uint256 personCount = 0;\n\n    mapping(address => Person) public persons;\n\n    struct Person {\n        string name;\n        string picture;\n        mapping(uint256 => string) memes;\n    }\n\n    function createProfile(string memory hashUrl, string memory name) public {\n        Person storage person = persons[msg.sender];\n\n        person.name = name;\n        person.picture = hashUrl;\n    }\n}\n",
  "sourcePath": "/mnt/home2/blockchain/decentralized-memebook/src/contracts/Profile.sol",
  "compiler": {
    "name": "solc",
    "version": "0.8.10+commit.fc410830.Emscripten.clang"
  },
  "schemaVersion": "3.4.3",
  "updatedAt": "2021-12-11T06:11:58.844Z",
  "devdoc": {
    "kind": "dev",
    "methods": {},
    "version": 1
  },
  "userdoc": {
    "kind": "user",
    "methods": {},
    "version": 1
  }
}