{
  "contractName": "Profile",
  "abi": [
    {
      "anonymous": false,
      "inputs": [
        {
          "indexed": false,
          "internalType": "string",
          "name": "name",
          "type": "string"
        },
        {
          "indexed": false,
          "internalType": "string",
          "name": "token",
          "type": "string"
        }
      ],
      "name": "ProfileCreate",
      "type": "event"
    },
    {
      "inputs": [
        {
          "internalType": "address",
          "name": "",
          "type": "address"
        }
      ],
      "name": "persons",
      "outputs": [
        {
          "internalType": "uint256",
          "name": "count",
          "type": "uint256"
        },
        {
          "internalType": "string",
          "name": "name",
          "type": "string"
        },
        {
          "internalType": "string",
          "name": "picture",
          "type": "string"
        },
        {
          "internalType": "string",
          "name": "token",
          "type": "string"
        }
      ],
      "stateMutability": "view",
      "type": "function",
      "constant": true
    },
    {
      "inputs": [
        {
          "internalType": "string",
          "name": "_token",
          "type": "string"
        },
        {
          "internalType": "string",
          "name": "name",
          "type": "string"
        }
      ],
      "name": "createProfile",
      "outputs": [],
      "stateMutability": "nonpayable",
      "type": "function"
    },
    {
      "inputs": [
        {
          "internalType": "string",
          "name": "hashUrl",
          "type": "string"
        }
      ],
      "name": "updatePicture",
      "outputs": [],
      "stateMutability": "nonpayable",
      "type": "function"
    },
    {
      "inputs": [
        {
          "internalType": "string",
          "name": "name",
          "type": "string"
        }
      ],
      "name": "updateName",
      "outputs": [],
      "stateMutability": "nonpayable",
      "type": "function"
    },
    {
      "inputs": [],
      "name": "getAuth",
      "outputs": [
        {
          "components": [
            {
              "internalType": "uint256",
              "name": "count",
              "type": "uint256"
            },
            {
              "internalType": "string",
              "name": "name",
              "type": "string"
            },
            {
              "internalType": "string",
              "name": "picture",
              "type": "string"
            },
            {
              "internalType": "string",
              "name": "token",
              "type": "string"
            }
          ],
          "internalType": "struct Profile.Person",
          "name": "",
          "type": "tuple"
        }
      ],
      "stateMutability": "view",
      "type": "function",
      "constant": true
    }
  ],
  "bytecode": "0x608060405260008060006101000a81548163ffffffff021916908363ffffffff16021790555034801561003157600080fd5b50610dcd806100416000396000f3fe608060405234801561001057600080fd5b50600436106100575760003560e01c806306a992981461005c578063085710111461007857806384da92a7146100965780638ada2cf6146100b2578063ba1feb8a146100e5575b600080fd5b610076600480360381019061007191906108cb565b610101565b005b610080610161565b60405161008d9190610a26565b60405180910390f35b6100b060048036038101906100ab91906108cb565b610378565b005b6100cc60048036038101906100c79190610aa6565b6103d8565b6040516100dc9493929190610b2c565b60405180910390f35b6100ff60048036038101906100fa9190610b86565b6105a0565b005b6000600160003373ffffffffffffffffffffffffffffffffffffffff1673ffffffffffffffffffffffffffffffffffffffff16815260200190815260200160002090508181600201908051906020019061015c9291906106a6565b505050565b61016961072c565b600160003373ffffffffffffffffffffffffffffffffffffffff1673ffffffffffffffffffffffffffffffffffffffff168152602001908152602001600020604051806080016040529081600082015481526020016001820180546101cd90610c2d565b80601f01602080910402602001604051908101604052809291908181526020018280546101f990610c2d565b80156102465780601f1061021b57610100808354040283529160200191610246565b820191906000526020600020905b81548152906001019060200180831161022957829003601f168201915b5050505050815260200160028201805461025f90610c2d565b80601f016020809104026020016040519081016040528092919081815260200182805461028b90610c2d565b80156102d85780601f106102ad576101008083540402835291602001916102d8565b820191906000526020600020905b8154815290600101906020018083116102bb57829003601f168201915b505050505081526020016003820180546102f190610c2d565b80601f016020809104026020016040519081016040528092919081815260200182805461031d90610c2d565b801561036a5780601f1061033f5761010080835404028352916020019161036a565b820191906000526020600020905b81548152906001019060200180831161034d57829003601f168201915b505050505081525050905090565b6000600160003373ffffffffffffffffffffffffffffffffffffffff1673ffffffffffffffffffffffffffffffffffffffff1681526020019081526020016000209050818160010190805190602001906103d39291906106a6565b505050565b600160205280600052604060002060009150905080600001549080600101805461040190610c2d565b80601f016020809104026020016040519081016040528092919081815260200182805461042d90610c2d565b801561047a5780601f1061044f5761010080835404028352916020019161047a565b820191906000526020600020905b81548152906001019060200180831161045d57829003601f168201915b50505050509080600201805461048f90610c2d565b80601f01602080910402602001604051908101604052809291908181526020018280546104bb90610c2d565b80156105085780601f106104dd57610100808354040283529160200191610508565b820191906000526020600020905b8154815290600101906020018083116104eb57829003601f168201915b50505050509080600301805461051d90610c2d565b80601f016020809104026020016040519081016040528092919081815260200182805461054990610c2d565b80156105965780601f1061056b57610100808354040283529160200191610596565b820191906000526020600020905b81548152906001019060200180831161057957829003601f168201915b5050505050905084565b6000600160003373ffffffffffffffffffffffffffffffffffffffff1673ffffffffffffffffffffffffffffffffffffffff168152602001908152602001600020905060008081819054906101000a900463ffffffff168092919061060490610c9e565b91906101000a81548163ffffffff021916908363ffffffff16021790555063ffffffff168160000181905550818160010190805190602001906106489291906106a6565b50828160030190805190602001906106619291906106a6565b507ff1fb5ec2eb6b7db61c0f2a2595aaf8b4b020ae67bf0df8b22117338bfa94ec3b8160010182600301604051610699929190610d60565b60405180910390a1505050565b8280546106b290610c2d565b90600052602060002090601f0160209004810192826106d4576000855561071b565b82601f106106ed57805160ff191683800117855561071b565b8280016001018555821561071b579182015b8281111561071a5782518255916020019190600101906106ff565b5b5090506107289190610754565b5090565b6040518060800160405280600081526020016060815260200160608152602001606081525090565b5b8082111561076d576000816000905550600101610755565b5090565b6000604051905090565b600080fd5b600080fd5b600080fd5b600080fd5b6000601f19601f8301169050919050565b7f4e487b7100000000000000000000000000000000000000000000000000000000600052604160045260246000fd5b6107d88261078f565b810181811067ffffffffffffffff821117156107f7576107f66107a0565b5b80604052505050565b600061080a610771565b905061081682826107cf565b919050565b600067ffffffffffffffff821115610836576108356107a0565b5b61083f8261078f565b9050602081019050919050565b82818337600083830152505050565b600061086e6108698461081b565b610800565b90508281526020810184848401111561088a5761088961078a565b5b61089584828561084c565b509392505050565b600082601f8301126108b2576108b1610785565b5b81356108c284826020860161085b565b91505092915050565b6000602082840312156108e1576108e061077b565b5b600082013567ffffffffffffffff8111156108ff576108fe610780565b5b61090b8482850161089d565b91505092915050565b6000819050919050565b61092781610914565b82525050565b600081519050919050565b600082825260208201905092915050565b60005b8381101561096757808201518184015260208101905061094c565b83811115610976576000848401525b50505050565b60006109878261092d565b6109918185610938565b93506109a1818560208601610949565b6109aa8161078f565b840191505092915050565b60006080830160008301516109cd600086018261091e565b50602083015184820360208601526109e5828261097c565b915050604083015184820360408601526109ff828261097c565b91505060608301518482036060860152610a19828261097c565b9150508091505092915050565b60006020820190508181036000830152610a4081846109b5565b905092915050565b600073ffffffffffffffffffffffffffffffffffffffff82169050919050565b6000610a7382610a48565b9050919050565b610a8381610a68565b8114610a8e57600080fd5b50565b600081359050610aa081610a7a565b92915050565b600060208284031215610abc57610abb61077b565b5b6000610aca84828501610a91565b91505092915050565b610adc81610914565b82525050565b600082825260208201905092915050565b6000610afe8261092d565b610b088185610ae2565b9350610b18818560208601610949565b610b218161078f565b840191505092915050565b6000608082019050610b416000830187610ad3565b8181036020830152610b538186610af3565b90508181036040830152610b678185610af3565b90508181036060830152610b7b8184610af3565b905095945050505050565b60008060408385031215610b9d57610b9c61077b565b5b600083013567ffffffffffffffff811115610bbb57610bba610780565b5b610bc78582860161089d565b925050602083013567ffffffffffffffff811115610be857610be7610780565b5b610bf48582860161089d565b9150509250929050565b7f4e487b7100000000000000000000000000000000000000000000000000000000600052602260045260246000fd5b60006002820490506001821680610c4557607f821691505b60208210811415610c5957610c58610bfe565b5b50919050565b7f4e487b7100000000000000000000000000000000000000000000000000000000600052601160045260246000fd5b600063ffffffff82169050919050565b6000610ca982610c8e565b915063ffffffff821415610cc057610cbf610c5f565b5b600182019050919050565b60008190508160005260206000209050919050565b60008154610ced81610c2d565b610cf78186610ae2565b94506001821660008114610d125760018114610d2457610d57565b60ff1983168652602086019350610d57565b610d2d85610ccb565b60005b83811015610d4f57815481890152600182019150602081019050610d30565b808801955050505b50505092915050565b60006040820190508181036000830152610d7a8185610ce0565b90508181036020830152610d8e8184610ce0565b9050939250505056fea26469706673582212205de7e3d13623bd0793882e7be8b8fe97b11bb8a45380b8b2ffe764de61807c1864736f6c634300080a0033",
  "immutableReferences": {},
  "source": "// SPDX-License-Identifier: MIT\n\npragma solidity ^0.8.0;\n\ncontract Profile {\n    uint32 personCount = 0;\n\n    mapping(address => Person) public persons;\n    event ProfileCreate(string name, string token);\n\n    struct Person {\n        uint256 count;\n        string name;\n        string picture;\n        string token;\n    }\n\n    function createProfile(string memory _token, string memory name) public {\n        Person storage person = persons[msg.sender];\n\n        person.count = personCount++;\n        person.name = name;\n        person.token = _token;\n\n        emit ProfileCreate(person.name, person.token);\n    }\n\n    function updatePicture(string memory hashUrl) public {\n        Person storage person = persons[msg.sender];\n\n        person.picture = hashUrl;\n    }\n\n    function updateName(string memory name) public {\n        Person storage person = persons[msg.sender];\n\n        person.name = name;\n    }\n\n    function getAuth() public view returns (Person memory) {\n        return persons[msg.sender];\n    }\n}\n",
  "sourcePath": "/mnt/home2/blockchain/decentralized-memebook/src/contracts/Profile.sol",
  "compiler": {
    "name": "solc",
    "version": "0.8.10+commit.fc410830.Emscripten.clang"
  },
  "schemaVersion": "3.4.3",
  "updatedAt": "2021-12-15T13:14:06.173Z",
  "networkType": "ethereum",
  "devdoc": {
    "kind": "dev",
    "methods": {},
    "version": 1
  },
  "userdoc": {
    "kind": "user",
    "methods": {},
    "version": 1
  }
}