{
  "contractName": "Profile",
  "abi": [
    {
      "inputs": [
        {
          "internalType": "address",
          "name": "",
          "type": "address"
        }
      ],
      "name": "persons",
      "outputs": [
        {
          "internalType": "uint256",
          "name": "count",
          "type": "uint256"
        },
        {
          "internalType": "string",
          "name": "name",
          "type": "string"
        },
        {
          "internalType": "string",
          "name": "picture",
          "type": "string"
        }
      ],
      "stateMutability": "view",
      "type": "function",
      "constant": true
    },
    {
      "inputs": [
        {
          "internalType": "string",
          "name": "hashUrl",
          "type": "string"
        },
        {
          "internalType": "string",
          "name": "name",
          "type": "string"
        }
      ],
      "name": "createProfile",
      "outputs": [],
      "stateMutability": "nonpayable",
      "type": "function"
    },
    {
      "inputs": [
        {
          "internalType": "string",
          "name": "hashUrl",
          "type": "string"
        }
      ],
      "name": "updatePicture",
      "outputs": [],
      "stateMutability": "nonpayable",
      "type": "function"
    },
    {
      "inputs": [
        {
          "internalType": "string",
          "name": "name",
          "type": "string"
        }
      ],
      "name": "updateName",
      "outputs": [],
      "stateMutability": "nonpayable",
      "type": "function"
    }
  ],
  "bytecode": "0x608060405260008060006101000a81548163ffffffff021916908363ffffffff16021790555034801561003157600080fd5b506108ca806100416000396000f3fe608060405234801561001057600080fd5b506004361061004c5760003560e01c806306a992981461005157806384da92a71461006d5780638ada2cf614610089578063ba1feb8a146100bb575b600080fd5b61006b60048036038101906100669190610595565b6100d7565b005b61008760048036038101906100829190610595565b610137565b005b6100a3600480360381019061009e919061063c565b610197565b6040516100b29392919061070a565b60405180910390f35b6100d560048036038101906100d0919061074f565b6102d1565b005b6000600160003373ffffffffffffffffffffffffffffffffffffffff1673ffffffffffffffffffffffffffffffffffffffff168152602001908152602001600020905081816002019080519060200190610132929190610398565b505050565b6000600160003373ffffffffffffffffffffffffffffffffffffffff1673ffffffffffffffffffffffffffffffffffffffff168152602001908152602001600020905081816001019080519060200190610192929190610398565b505050565b60016020528060005260406000206000915090508060000154908060010180546101c0906107f6565b80601f01602080910402602001604051908101604052809291908181526020018280546101ec906107f6565b80156102395780601f1061020e57610100808354040283529160200191610239565b820191906000526020600020905b81548152906001019060200180831161021c57829003601f168201915b50505050509080600201805461024e906107f6565b80601f016020809104026020016040519081016040528092919081815260200182805461027a906107f6565b80156102c75780601f1061029c576101008083540402835291602001916102c7565b820191906000526020600020905b8154815290600101906020018083116102aa57829003601f168201915b5050505050905083565b6000600160003373ffffffffffffffffffffffffffffffffffffffff1673ffffffffffffffffffffffffffffffffffffffff168152602001908152602001600020905060008081819054906101000a900463ffffffff168092919061033590610867565b91906101000a81548163ffffffff021916908363ffffffff16021790555063ffffffff16816000018190555081816001019080519060200190610379929190610398565b5082816002019080519060200190610392929190610398565b50505050565b8280546103a4906107f6565b90600052602060002090601f0160209004810192826103c6576000855561040d565b82601f106103df57805160ff191683800117855561040d565b8280016001018555821561040d579182015b8281111561040c5782518255916020019190600101906103f1565b5b50905061041a919061041e565b5090565b5b8082111561043757600081600090555060010161041f565b5090565b6000604051905090565b600080fd5b600080fd5b600080fd5b600080fd5b6000601f19601f8301169050919050565b7f4e487b7100000000000000000000000000000000000000000000000000000000600052604160045260246000fd5b6104a282610459565b810181811067ffffffffffffffff821117156104c1576104c061046a565b5b80604052505050565b60006104d461043b565b90506104e08282610499565b919050565b600067ffffffffffffffff821115610500576104ff61046a565b5b61050982610459565b9050602081019050919050565b82818337600083830152505050565b6000610538610533846104e5565b6104ca565b90508281526020810184848401111561055457610553610454565b5b61055f848285610516565b509392505050565b600082601f83011261057c5761057b61044f565b5b813561058c848260208601610525565b91505092915050565b6000602082840312156105ab576105aa610445565b5b600082013567ffffffffffffffff8111156105c9576105c861044a565b5b6105d584828501610567565b91505092915050565b600073ffffffffffffffffffffffffffffffffffffffff82169050919050565b6000610609826105de565b9050919050565b610619816105fe565b811461062457600080fd5b50565b60008135905061063681610610565b92915050565b60006020828403121561065257610651610445565b5b600061066084828501610627565b91505092915050565b6000819050919050565b61067c81610669565b82525050565b600081519050919050565b600082825260208201905092915050565b60005b838110156106bc5780820151818401526020810190506106a1565b838111156106cb576000848401525b50505050565b60006106dc82610682565b6106e6818561068d565b93506106f681856020860161069e565b6106ff81610459565b840191505092915050565b600060608201905061071f6000830186610673565b818103602083015261073181856106d1565b9050818103604083015261074581846106d1565b9050949350505050565b6000806040838503121561076657610765610445565b5b600083013567ffffffffffffffff8111156107845761078361044a565b5b61079085828601610567565b925050602083013567ffffffffffffffff8111156107b1576107b061044a565b5b6107bd85828601610567565b9150509250929050565b7f4e487b7100000000000000000000000000000000000000000000000000000000600052602260045260246000fd5b6000600282049050600182168061080e57607f821691505b60208210811415610822576108216107c7565b5b50919050565b7f4e487b7100000000000000000000000000000000000000000000000000000000600052601160045260246000fd5b600063ffffffff82169050919050565b600061087282610857565b915063ffffffff82141561088957610888610828565b5b60018201905091905056fea26469706673582212209900556b4125dedd28348b42fc177c1a9c5861fc807c882b3faf3fdb0dce8f9464736f6c634300080a0033",
  "immutableReferences": {},
  "source": "// SPDX-License-Identifier: MIT\n\npragma solidity ^0.8.0;\n\ncontract Profile {\n    uint32 personCount = 0;\n\n    mapping(address => Person) public persons;\n\n    struct Person {\n        uint256 count;\n        string name;\n        string picture;\n        mapping(uint256 => string) memes;\n    }\n\n    function createProfile(string memory hashUrl, string memory name) public {\n        Person storage person = persons[msg.sender];\n\n        person.count = personCount++;\n        person.name = name;\n        person.picture = hashUrl;\n    }\n\n    function updatePicture(string memory hashUrl) public {\n        Person storage person = persons[msg.sender];\n\n        person.picture = hashUrl;\n    }\n\n    function updateName(string memory name) public {\n        Person storage person = persons[msg.sender];\n\n        person.name = name;\n    }\n}\n",
  "sourcePath": "/mnt/home2/blockchain/decentralized-memebook/src/contracts/Profile.sol",
  "compiler": {
    "name": "solc",
    "version": "0.8.10+commit.fc410830.Emscripten.clang"
  },
  "schemaVersion": "3.4.3",
  "updatedAt": "2021-12-12T13:33:22.071Z",
  "networkType": "ethereum",
  "devdoc": {
    "kind": "dev",
    "methods": {},
    "version": 1
  },
  "userdoc": {
    "kind": "user",
    "methods": {},
    "version": 1
  }
}