{
  "contractName": "Profile",
  "abi": [
    {
      "anonymous": false,
      "inputs": [
        {
          "indexed": false,
          "internalType": "string",
          "name": "name",
          "type": "string"
        },
        {
          "indexed": false,
          "internalType": "string",
          "name": "token",
          "type": "string"
        }
      ],
      "name": "ProfileCreate",
      "type": "event"
    },
    {
      "anonymous": false,
      "inputs": [
        {
          "indexed": false,
          "internalType": "string",
          "name": "name",
          "type": "string"
        }
      ],
      "name": "nameUpdate",
      "type": "event"
    },
    {
      "anonymous": false,
      "inputs": [
        {
          "indexed": false,
          "internalType": "string",
          "name": "url",
          "type": "string"
        }
      ],
      "name": "profilePicture",
      "type": "event"
    },
    {
      "inputs": [],
      "name": "personCount",
      "outputs": [
        {
          "internalType": "uint32",
          "name": "",
          "type": "uint32"
        }
      ],
      "stateMutability": "view",
      "type": "function",
      "constant": true
    },
    {
      "inputs": [
        {
          "internalType": "address",
          "name": "",
          "type": "address"
        }
      ],
      "name": "persons",
      "outputs": [
        {
          "internalType": "uint256",
          "name": "count",
          "type": "uint256"
        },
        {
          "internalType": "string",
          "name": "name",
          "type": "string"
        },
        {
          "internalType": "string",
          "name": "picture",
          "type": "string"
        },
        {
          "internalType": "string",
          "name": "token",
          "type": "string"
        }
      ],
      "stateMutability": "view",
      "type": "function",
      "constant": true
    },
    {
      "inputs": [
        {
          "internalType": "string",
          "name": "_token",
          "type": "string"
        },
        {
          "internalType": "string",
          "name": "_name",
          "type": "string"
        }
      ],
      "name": "createProfile",
      "outputs": [],
      "stateMutability": "nonpayable",
      "type": "function"
    },
    {
      "inputs": [
        {
          "internalType": "string",
          "name": "hashUrl",
          "type": "string"
        }
      ],
      "name": "updatePicture",
      "outputs": [],
      "stateMutability": "nonpayable",
      "type": "function"
    },
    {
      "inputs": [
        {
          "internalType": "string",
          "name": "_name",
          "type": "string"
        }
      ],
      "name": "updateName",
      "outputs": [],
      "stateMutability": "nonpayable",
      "type": "function"
    },
    {
      "inputs": [],
      "name": "getAuth",
      "outputs": [
        {
          "components": [
            {
              "internalType": "uint256",
              "name": "count",
              "type": "uint256"
            },
            {
              "internalType": "string",
              "name": "name",
              "type": "string"
            },
            {
              "internalType": "string",
              "name": "picture",
              "type": "string"
            },
            {
              "internalType": "string",
              "name": "token",
              "type": "string"
            }
          ],
          "internalType": "struct Profile.Person",
          "name": "",
          "type": "tuple"
        }
      ],
      "stateMutability": "view",
      "type": "function",
      "constant": true
    }
  ],
  "bytecode": "0x608060405260008060006101000a81548163ffffffff021916908363ffffffff16021790555034801561003157600080fd5b506110e2806100416000396000f3fe608060405234801561001057600080fd5b50600436106100625760003560e01c806306a9929814610067578063085710111461008357806378495bf8146100a157806384da92a7146100bf5780638ada2cf6146100db578063ba1feb8a1461010e575b600080fd5b610081600480360381019061007c9190610aaf565b61012a565b005b61008b610208565b6040516100989190610c0a565b60405180910390f35b6100a961049d565b6040516100b69190610c4b565b60405180910390f35b6100d960048036038101906100d49190610aaf565b6104b1565b005b6100f560048036038101906100f09190610cc4565b61058f565b6040516101059493929190610d4a565b60405180910390f35b61012860048036038101906101239190610da4565b610757565b005b600081511161016e576040517f08c379a000000000000000000000000000000000000000000000000000000000815260040161016590610e68565b60405180910390fd5b6000600160003373ffffffffffffffffffffffffffffffffffffffff1673ffffffffffffffffffffffffffffffffffffffff1681526020019081526020016000209050818160020190805190602001906101c992919061088a565b507fafbb1bb2daed62d7f16b641aff88c9d2f614634342f8c701d713b2cdfea82e17816002016040516101fc9190610f7e565b60405180910390a15050565b610210610910565b6000600160003373ffffffffffffffffffffffffffffffffffffffff1673ffffffffffffffffffffffffffffffffffffffff1681526020019081526020016000209050600081600101805461026490610eb7565b90501161027057600080fd5b600081600301805461028190610eb7565b90501161028d57600080fd5b600160003373ffffffffffffffffffffffffffffffffffffffff1673ffffffffffffffffffffffffffffffffffffffff168152602001908152602001600020604051806080016040529081600082015481526020016001820180546102f190610eb7565b80601f016020809104026020016040519081016040528092919081815260200182805461031d90610eb7565b801561036a5780601f1061033f5761010080835404028352916020019161036a565b820191906000526020600020905b81548152906001019060200180831161034d57829003601f168201915b5050505050815260200160028201805461038390610eb7565b80601f01602080910402602001604051908101604052809291908181526020018280546103af90610eb7565b80156103fc5780601f106103d1576101008083540402835291602001916103fc565b820191906000526020600020905b8154815290600101906020018083116103df57829003601f168201915b5050505050815260200160038201805461041590610eb7565b80601f016020809104026020016040519081016040528092919081815260200182805461044190610eb7565b801561048e5780601f106104635761010080835404028352916020019161048e565b820191906000526020600020905b81548152906001019060200180831161047157829003601f168201915b50505050508152505091505090565b60008054906101000a900463ffffffff1681565b60008151116104f5576040517f08c379a00000000000000000000000000000000000000000000000000000000081526004016104ec90610fec565b60405180910390fd5b6000600160003373ffffffffffffffffffffffffffffffffffffffff1673ffffffffffffffffffffffffffffffffffffffff16815260200190815260200160002090508181600101908051906020019061055092919061088a565b507fb63543ddfed42bc1b7a50630c7abf2809dfe7873e4bfda1b9bf8d7b8b7097272816001016040516105839190610f7e565b60405180910390a15050565b60016020528060005260406000206000915090508060000154908060010180546105b890610eb7565b80601f01602080910402602001604051908101604052809291908181526020018280546105e490610eb7565b80156106315780601f1061060657610100808354040283529160200191610631565b820191906000526020600020905b81548152906001019060200180831161061457829003601f168201915b50505050509080600201805461064690610eb7565b80601f016020809104026020016040519081016040528092919081815260200182805461067290610eb7565b80156106bf5780601f10610694576101008083540402835291602001916106bf565b820191906000526020600020905b8154815290600101906020018083116106a257829003601f168201915b5050505050908060030180546106d490610eb7565b80601f016020809104026020016040519081016040528092919081815260200182805461070090610eb7565b801561074d5780601f106107225761010080835404028352916020019161074d565b820191906000526020600020905b81548152906001019060200180831161073057829003601f168201915b5050505050905084565b600082511161076557600080fd5b600081511161077357600080fd5b6000600160003373ffffffffffffffffffffffffffffffffffffffff1673ffffffffffffffffffffffffffffffffffffffff168152602001908152602001600020905060016000808282829054906101000a900463ffffffff166107d7919061103b565b92506101000a81548163ffffffff021916908363ffffffff16021790555060008054906101000a900463ffffffff1663ffffffff1681600001819055508181600101908051906020019061082c92919061088a565b508281600301908051906020019061084592919061088a565b507ff1fb5ec2eb6b7db61c0f2a2595aaf8b4b020ae67bf0df8b22117338bfa94ec3b816001018260030160405161087d929190611075565b60405180910390a1505050565b82805461089690610eb7565b90600052602060002090601f0160209004810192826108b857600085556108ff565b82601f106108d157805160ff19168380011785556108ff565b828001600101855582156108ff579182015b828111156108fe5782518255916020019190600101906108e3565b5b50905061090c9190610938565b5090565b6040518060800160405280600081526020016060815260200160608152602001606081525090565b5b80821115610951576000816000905550600101610939565b5090565b6000604051905090565b600080fd5b600080fd5b600080fd5b600080fd5b6000601f19601f8301169050919050565b7f4e487b7100000000000000000000000000000000000000000000000000000000600052604160045260246000fd5b6109bc82610973565b810181811067ffffffffffffffff821117156109db576109da610984565b5b80604052505050565b60006109ee610955565b90506109fa82826109b3565b919050565b600067ffffffffffffffff821115610a1a57610a19610984565b5b610a2382610973565b9050602081019050919050565b82818337600083830152505050565b6000610a52610a4d846109ff565b6109e4565b905082815260208101848484011115610a6e57610a6d61096e565b5b610a79848285610a30565b509392505050565b600082601f830112610a9657610a95610969565b5b8135610aa6848260208601610a3f565b91505092915050565b600060208284031215610ac557610ac461095f565b5b600082013567ffffffffffffffff811115610ae357610ae2610964565b5b610aef84828501610a81565b91505092915050565b6000819050919050565b610b0b81610af8565b82525050565b600081519050919050565b600082825260208201905092915050565b60005b83811015610b4b578082015181840152602081019050610b30565b83811115610b5a576000848401525b50505050565b6000610b6b82610b11565b610b758185610b1c565b9350610b85818560208601610b2d565b610b8e81610973565b840191505092915050565b6000608083016000830151610bb16000860182610b02565b5060208301518482036020860152610bc98282610b60565b91505060408301518482036040860152610be38282610b60565b91505060608301518482036060860152610bfd8282610b60565b9150508091505092915050565b60006020820190508181036000830152610c248184610b99565b905092915050565b600063ffffffff82169050919050565b610c4581610c2c565b82525050565b6000602082019050610c606000830184610c3c565b92915050565b600073ffffffffffffffffffffffffffffffffffffffff82169050919050565b6000610c9182610c66565b9050919050565b610ca181610c86565b8114610cac57600080fd5b50565b600081359050610cbe81610c98565b92915050565b600060208284031215610cda57610cd961095f565b5b6000610ce884828501610caf565b91505092915050565b610cfa81610af8565b82525050565b600082825260208201905092915050565b6000610d1c82610b11565b610d268185610d00565b9350610d36818560208601610b2d565b610d3f81610973565b840191505092915050565b6000608082019050610d5f6000830187610cf1565b8181036020830152610d718186610d11565b90508181036040830152610d858185610d11565b90508181036060830152610d998184610d11565b905095945050505050565b60008060408385031215610dbb57610dba61095f565b5b600083013567ffffffffffffffff811115610dd957610dd8610964565b5b610de585828601610a81565b925050602083013567ffffffffffffffff811115610e0657610e05610964565b5b610e1285828601610a81565b9150509250929050565b7f696e76616c69642055726c000000000000000000000000000000000000000000600082015250565b6000610e52600b83610d00565b9150610e5d82610e1c565b602082019050919050565b60006020820190508181036000830152610e8181610e45565b9050919050565b7f4e487b7100000000000000000000000000000000000000000000000000000000600052602260045260246000fd5b60006002820490506001821680610ecf57607f821691505b60208210811415610ee357610ee2610e88565b5b50919050565b60008190508160005260206000209050919050565b60008154610f0b81610eb7565b610f158186610d00565b94506001821660008114610f305760018114610f4257610f75565b60ff1983168652602086019350610f75565b610f4b85610ee9565b60005b83811015610f6d57815481890152600182019150602081019050610f4e565b808801955050505b50505092915050565b60006020820190508181036000830152610f988184610efe565b905092915050565b7f696e76616c6964206e616d650000000000000000000000000000000000000000600082015250565b6000610fd6600c83610d00565b9150610fe182610fa0565b602082019050919050565b6000602082019050818103600083015261100581610fc9565b9050919050565b7f4e487b7100000000000000000000000000000000000000000000000000000000600052601160045260246000fd5b600061104682610c2c565b915061105183610c2c565b92508263ffffffff0382111561106a5761106961100c565b5b828201905092915050565b6000604082019050818103600083015261108f8185610efe565b905081810360208301526110a38184610efe565b9050939250505056fea26469706673582212206947819406fb0b5b9ca4fd67ff5e56cf7afabf680ef36f707a794fc36e3d529f64736f6c634300080a0033",
  "immutableReferences": {},
  "source": "// SPDX-License-Identifier: MIT\n\npragma solidity ^0.8.0;\n\ncontract Profile {\n    uint32 public personCount = 0;\n\n    mapping(address => Person) public persons;\n\n    event ProfileCreate(string name, string token);\n    event profilePicture(string url);\n    event nameUpdate(string name);\n\n    struct Person {\n        uint256 count;\n        string name;\n        string picture;\n        string token;\n    }\n\n    function createProfile(string memory _token, string memory _name) public {\n        require(bytes(_token).length > 0);\n        require(bytes(_name).length > 0);\n\n        Person storage person = persons[msg.sender];\n        personCount += 1;\n        person.count = personCount;\n        person.name = _name;\n        person.token = _token;\n\n        emit ProfileCreate(person.name, person.token);\n    }\n\n    function updatePicture(string memory hashUrl) public {\n        require(bytes(hashUrl).length > 0, \"invalid Url\");\n\n        Person storage person = persons[msg.sender];\n\n        person.picture = hashUrl;\n\n        emit profilePicture(person.picture);\n    }\n\n    function updateName(string memory _name) public {\n        require(bytes(_name).length > 0, \"invalid name\");\n\n        Person storage person = persons[msg.sender];\n\n        person.name = _name;\n        emit nameUpdate(person.name);\n    }\n\n    function getAuth() public view returns (Person memory) {\n        Person storage person = persons[msg.sender];\n\n        require(bytes(person.name).length > 0);\n        require(bytes(person.token).length > 0);\n\n        return persons[msg.sender];\n    }\n}\n",
  "sourcePath": "/mnt/home2/blockchain/decentralized-memebook/src/contracts/Profile.sol",
  "compiler": {
    "name": "solc",
    "version": "0.8.10+commit.fc410830.Emscripten.clang"
  },
  "schemaVersion": "3.4.3",
  "updatedAt": "2021-12-16T05:04:30.643Z",
  "networkType": "ethereum",
  "devdoc": {
    "kind": "dev",
    "methods": {},
    "version": 1
  },
  "userdoc": {
    "kind": "user",
    "methods": {},
    "version": 1
  }
}