{
  "contractName": "Profile",
  "abi": [
    {
      "anonymous": false,
      "inputs": [
        {
          "indexed": false,
          "internalType": "string",
          "name": "name",
          "type": "string"
        },
        {
          "indexed": false,
          "internalType": "string",
          "name": "token",
          "type": "string"
        }
      ],
      "name": "ProfileCreate",
      "type": "event"
    },
    {
      "anonymous": false,
      "inputs": [
        {
          "indexed": false,
          "internalType": "string",
          "name": "name",
          "type": "string"
        }
      ],
      "name": "nameUpdate",
      "type": "event"
    },
    {
      "anonymous": false,
      "inputs": [
        {
          "indexed": false,
          "internalType": "string",
          "name": "url",
          "type": "string"
        }
      ],
      "name": "profilePicture",
      "type": "event"
    },
    {
      "inputs": [],
      "name": "personCount",
      "outputs": [
        {
          "internalType": "uint32",
          "name": "",
          "type": "uint32"
        }
      ],
      "stateMutability": "view",
      "type": "function",
      "constant": true
    },
    {
      "inputs": [
        {
          "internalType": "address",
          "name": "",
          "type": "address"
        }
      ],
      "name": "persons",
      "outputs": [
        {
          "internalType": "uint256",
          "name": "count",
          "type": "uint256"
        },
        {
          "internalType": "string",
          "name": "name",
          "type": "string"
        },
        {
          "internalType": "string",
          "name": "picture",
          "type": "string"
        },
        {
          "internalType": "string",
          "name": "token",
          "type": "string"
        }
      ],
      "stateMutability": "view",
      "type": "function",
      "constant": true
    },
    {
      "inputs": [
        {
          "internalType": "string",
          "name": "_token",
          "type": "string"
        },
        {
          "internalType": "string",
          "name": "_name",
          "type": "string"
        }
      ],
      "name": "createProfile",
      "outputs": [],
      "stateMutability": "nonpayable",
      "type": "function"
    },
    {
      "inputs": [
        {
          "internalType": "string",
          "name": "hashUrl",
          "type": "string"
        }
      ],
      "name": "updatePicture",
      "outputs": [],
      "stateMutability": "nonpayable",
      "type": "function"
    },
    {
      "inputs": [
        {
          "internalType": "string",
          "name": "_name",
          "type": "string"
        }
      ],
      "name": "updateName",
      "outputs": [],
      "stateMutability": "nonpayable",
      "type": "function"
    },
    {
      "inputs": [],
      "name": "getAuth",
      "outputs": [
        {
          "internalType": "string",
          "name": "",
          "type": "string"
        },
        {
          "internalType": "string",
          "name": "",
          "type": "string"
        }
      ],
      "stateMutability": "view",
      "type": "function",
      "constant": true
    }
  ],
  "bytecode": "0x608060405260008060006101000a81548163ffffffff021916908363ffffffff16021790555034801561003157600080fd5b50610ee0806100416000396000f3fe608060405234801561001057600080fd5b50600436106100625760003560e01c806306a9929814610067578063085710111461008357806378495bf8146100a257806384da92a7146100c05780638ada2cf6146100dc578063ba1feb8a1461010f575b600080fd5b610081600480360381019061007c9190610962565b61012b565b005b61008b610209565b604051610099929190610a33565b60405180910390f35b6100aa610378565b6040516100b79190610a89565b60405180910390f35b6100da60048036038101906100d59190610962565b61038c565b005b6100f660048036038101906100f19190610b02565b61046a565b6040516101069493929190610b48565b60405180910390f35b61012960048036038101906101249190610ba2565b610632565b005b600081511161016f576040517f08c379a000000000000000000000000000000000000000000000000000000000815260040161016690610c66565b60405180910390fd5b6000600160003373ffffffffffffffffffffffffffffffffffffffff1673ffffffffffffffffffffffffffffffffffffffff1681526020019081526020016000209050818160020190805190602001906101ca929190610765565b507fafbb1bb2daed62d7f16b641aff88c9d2f614634342f8c701d713b2cdfea82e17816002016040516101fd9190610d7c565b60405180910390a15050565b6060806000600160003373ffffffffffffffffffffffffffffffffffffffff1673ffffffffffffffffffffffffffffffffffffffff1681526020019081526020016000209050806001018160030181805461026390610cb5565b80601f016020809104026020016040519081016040528092919081815260200182805461028f90610cb5565b80156102dc5780601f106102b1576101008083540402835291602001916102dc565b820191906000526020600020905b8154815290600101906020018083116102bf57829003601f168201915b505050505091508080546102ef90610cb5565b80601f016020809104026020016040519081016040528092919081815260200182805461031b90610cb5565b80156103685780601f1061033d57610100808354040283529160200191610368565b820191906000526020600020905b81548152906001019060200180831161034b57829003601f168201915b5050505050905092509250509091565b60008054906101000a900463ffffffff1681565b60008151116103d0576040517f08c379a00000000000000000000000000000000000000000000000000000000081526004016103c790610dea565b60405180910390fd5b6000600160003373ffffffffffffffffffffffffffffffffffffffff1673ffffffffffffffffffffffffffffffffffffffff16815260200190815260200160002090508181600101908051906020019061042b929190610765565b507fb63543ddfed42bc1b7a50630c7abf2809dfe7873e4bfda1b9bf8d7b8b70972728160010160405161045e9190610d7c565b60405180910390a15050565b600160205280600052604060002060009150905080600001549080600101805461049390610cb5565b80601f01602080910402602001604051908101604052809291908181526020018280546104bf90610cb5565b801561050c5780601f106104e15761010080835404028352916020019161050c565b820191906000526020600020905b8154815290600101906020018083116104ef57829003601f168201915b50505050509080600201805461052190610cb5565b80601f016020809104026020016040519081016040528092919081815260200182805461054d90610cb5565b801561059a5780601f1061056f5761010080835404028352916020019161059a565b820191906000526020600020905b81548152906001019060200180831161057d57829003601f168201915b5050505050908060030180546105af90610cb5565b80601f01602080910402602001604051908101604052809291908181526020018280546105db90610cb5565b80156106285780601f106105fd57610100808354040283529160200191610628565b820191906000526020600020905b81548152906001019060200180831161060b57829003601f168201915b5050505050905084565b600082511161064057600080fd5b600081511161064e57600080fd5b6000600160003373ffffffffffffffffffffffffffffffffffffffff1673ffffffffffffffffffffffffffffffffffffffff168152602001908152602001600020905060016000808282829054906101000a900463ffffffff166106b29190610e39565b92506101000a81548163ffffffff021916908363ffffffff16021790555060008054906101000a900463ffffffff1663ffffffff16816000018190555081816001019080519060200190610707929190610765565b5082816003019080519060200190610720929190610765565b507ff1fb5ec2eb6b7db61c0f2a2595aaf8b4b020ae67bf0df8b22117338bfa94ec3b8160010182600301604051610758929190610e73565b60405180910390a1505050565b82805461077190610cb5565b90600052602060002090601f01602090048101928261079357600085556107da565b82601f106107ac57805160ff19168380011785556107da565b828001600101855582156107da579182015b828111156107d95782518255916020019190600101906107be565b5b5090506107e791906107eb565b5090565b5b808211156108045760008160009055506001016107ec565b5090565b6000604051905090565b600080fd5b600080fd5b600080fd5b600080fd5b6000601f19601f8301169050919050565b7f4e487b7100000000000000000000000000000000000000000000000000000000600052604160045260246000fd5b61086f82610826565b810181811067ffffffffffffffff8211171561088e5761088d610837565b5b80604052505050565b60006108a1610808565b90506108ad8282610866565b919050565b600067ffffffffffffffff8211156108cd576108cc610837565b5b6108d682610826565b9050602081019050919050565b82818337600083830152505050565b6000610905610900846108b2565b610897565b90508281526020810184848401111561092157610920610821565b5b61092c8482856108e3565b509392505050565b600082601f8301126109495761094861081c565b5b81356109598482602086016108f2565b91505092915050565b60006020828403121561097857610977610812565b5b600082013567ffffffffffffffff81111561099657610995610817565b5b6109a284828501610934565b91505092915050565b600081519050919050565b600082825260208201905092915050565b60005b838110156109e55780820151818401526020810190506109ca565b838111156109f4576000848401525b50505050565b6000610a05826109ab565b610a0f81856109b6565b9350610a1f8185602086016109c7565b610a2881610826565b840191505092915050565b60006040820190508181036000830152610a4d81856109fa565b90508181036020830152610a6181846109fa565b90509392505050565b600063ffffffff82169050919050565b610a8381610a6a565b82525050565b6000602082019050610a9e6000830184610a7a565b92915050565b600073ffffffffffffffffffffffffffffffffffffffff82169050919050565b6000610acf82610aa4565b9050919050565b610adf81610ac4565b8114610aea57600080fd5b50565b600081359050610afc81610ad6565b92915050565b600060208284031215610b1857610b17610812565b5b6000610b2684828501610aed565b91505092915050565b6000819050919050565b610b4281610b2f565b82525050565b6000608082019050610b5d6000830187610b39565b8181036020830152610b6f81866109fa565b90508181036040830152610b8381856109fa565b90508181036060830152610b9781846109fa565b905095945050505050565b60008060408385031215610bb957610bb8610812565b5b600083013567ffffffffffffffff811115610bd757610bd6610817565b5b610be385828601610934565b925050602083013567ffffffffffffffff811115610c0457610c03610817565b5b610c1085828601610934565b9150509250929050565b7f696e76616c69642055726c000000000000000000000000000000000000000000600082015250565b6000610c50600b836109b6565b9150610c5b82610c1a565b602082019050919050565b60006020820190508181036000830152610c7f81610c43565b9050919050565b7f4e487b7100000000000000000000000000000000000000000000000000000000600052602260045260246000fd5b60006002820490506001821680610ccd57607f821691505b60208210811415610ce157610ce0610c86565b5b50919050565b60008190508160005260206000209050919050565b60008154610d0981610cb5565b610d1381866109b6565b94506001821660008114610d2e5760018114610d4057610d73565b60ff1983168652602086019350610d73565b610d4985610ce7565b60005b83811015610d6b57815481890152600182019150602081019050610d4c565b808801955050505b50505092915050565b60006020820190508181036000830152610d968184610cfc565b905092915050565b7f696e76616c6964206e616d650000000000000000000000000000000000000000600082015250565b6000610dd4600c836109b6565b9150610ddf82610d9e565b602082019050919050565b60006020820190508181036000830152610e0381610dc7565b9050919050565b7f4e487b7100000000000000000000000000000000000000000000000000000000600052601160045260246000fd5b6000610e4482610a6a565b9150610e4f83610a6a565b92508263ffffffff03821115610e6857610e67610e0a565b5b828201905092915050565b60006040820190508181036000830152610e8d8185610cfc565b90508181036020830152610ea18184610cfc565b9050939250505056fea26469706673582212202de14f6c5a4e1b9f6900af47ce164a722cfca70ab84e8b7d9e55e2d03d1f6d0164736f6c634300080a0033",
  "immutableReferences": {},
  "source": "// SPDX-License-Identifier: MIT\n\npragma solidity ^0.8.0;\n\ncontract Profile {\n    uint32 public personCount = 0;\n\n    mapping(address => Person) public persons;\n\n    event ProfileCreate(string name, string token);\n    event profilePicture(string url);\n    event nameUpdate(string name);\n\n    struct Person {\n        uint256 count;\n        string name;\n        string picture;\n        string token;\n    }\n\n    function createProfile(string memory _token, string memory _name) public {\n        require(bytes(_token).length > 0);\n        require(bytes(_name).length > 0);\n\n        Person storage person = persons[msg.sender];\n        personCount += 1;\n        person.count = personCount;\n        person.name = _name;\n        person.token = _token;\n\n        emit ProfileCreate(person.name, person.token);\n    }\n\n    function updatePicture(string memory hashUrl) public {\n        require(bytes(hashUrl).length > 0, \"invalid Url\");\n\n        Person storage person = persons[msg.sender];\n\n        person.picture = hashUrl;\n\n        emit profilePicture(person.picture);\n    }\n\n    function updateName(string memory _name) public {\n        require(bytes(_name).length > 0, \"invalid name\");\n\n        Person storage person = persons[msg.sender];\n\n        person.name = _name;\n        emit nameUpdate(person.name);\n    }\n\n    function getAuth() public view returns (string memory, string memory) {\n        Person storage person = persons[msg.sender];\n\n        return (person.name, person.token);\n    }\n}\n",
  "sourcePath": "/mnt/home2/blockchain/decentralized-memebook/src/contracts/Profile.sol",
  "compiler": {
    "name": "solc",
    "version": "0.8.10+commit.fc410830.Emscripten.clang"
  },
  "schemaVersion": "3.4.3",
  "updatedAt": "2021-12-19T15:15:09.198Z",
  "networkType": "ethereum",
  "devdoc": {
    "kind": "dev",
    "methods": {},
    "version": 1
  },
  "userdoc": {
    "kind": "user",
    "methods": {},
    "version": 1
  }
}